:02000000802658
:02000300802358
:02000B00801B58
:02001300801358
:02001B00800B58
:02002300800358
:0A002600800075817075D0007587A9
:100030000075A0797D02120E32E580F475A07F5420
:1000400002B402117D02120E27C2B57D02120E27E4
:10005000D2B5020031C2A7C20DC20AC20ED210D25E
:1000600011754AFF754CFF754BFF754DFF754804C0
:100070007D05120E3220B308D20F0030B3080128DC
:100080000030B3A4C20F75A0727D02120E32E5805B
:10009000F454F0C4F54775A07FD290D2CCD291D25F
:1000A00094D293D2B1D20B754900753D00753310CF
:1000B000753410753510753610753800753A007541
:1000C0003900753B00755200755300755400755525
:1000D00000755600755700755800755900C2B57502
:1000E000A0707D03120E32E580208707D20EC20B6E
:1000F000753C19F4547FF54E23F530900E3593F589
:1001000041E5300493F54275A07FE54EB47F0221AE
:10011000ACC2937D01120E2712013A7D02120E2706
:100120002095FD7D02120E32C2947D08120E27D258
:10013000B57D05120E27C2B521ACD291C2907D02C9
:10014000120E3274F0780812018D740378081201CF
:100150008D7454780612018D7D04120E32D2907D7A
:1001600064120E32C2907D02120E3274527808125E
:10017000018DE541780812018DE542780612018D66
:100180007D04120E32D2907D64120E32227D08124E
:100190000E32335004D292219BC2927D08120E324D
:1001A000C2917D02120E32D291D8E22275A0777DE3
:1001B00002120E32E580540FF533E58054F0C47519
:1001C000A07FF53575A0787D02120E32E580540FC0
:1001D000F534E58054F0C475A07FF536752FFFE542
:1001E00033B40F11E535B40F10E534B40F0FE53615
:1001F000B40F0E4103C27821E4C27821E9C27C2108
:10020000EEC27CE52FF46027F4F5807D02120E32F9
:10021000C2B5D2A77D01120E27C2A700007580FFCC
:100220000000D2B5D2A77D02120E27C2A721ACC210
:10023000B57C09E4F530C2A7900EE793F5807D0404
:10024000120E32D2A77D07120E27E53004DCE575C9
:1002500080FF200E1575A0707D01120E3220070A56
:10026000208707C20BD20E753C1975A07F75200040
:1002700030A604C2B5418E20A614200D05D20D75FE
:100280003E32D54807C2B5754804418ED2B575A037
:10029000777D01120E32E580F4B4100474028033CD
:1002A000B412047406802CB41604740E8025B4179E
:1002B00004740A801EB4080474018017B40A04741C
:1002C000058010B40E04740D8009B40F0474098005
:1002D000027400F975A07F855250855351120D4567
:1002E0008933855052855153B91004C20041F1D26F
:1002F0000074017804120CEEE55C600F3010058587
:100300005C5AC210D55A04C2B6D2107400780412D6
:100310000CEE75A0777D01120E32E580F4B4200456
:1003200074108033B422047450802CB4260474D624
:100330008025B427047490801EB440047420801774
:10034000B4420474608010B4460474E08009B44779
:100350000474A080027400C4F975A07F8554508590
:100360005551120D458935855054855155B91004A4
:10037000C2016176D20174007804120CEEE55C6073
:100380000F301005855C5AC210D55A04C2B6D2107F
:1003900074007804120CEE75A0787D01120E32E51F
:1003A00080F4B4080474018033B418047405802CFC
:1003B000B43804740D8025B478047409801EB40424
:1003C0000474028017B4140474068010B4340474E6
:1003D0000E8009B47404740A80027400F975A07F59
:1003E000855650855751120D458934855056855193
:1003F00057B91004C20261FAD20274007804120CD8
:10040000EEE55C600F301105855C5BC211D55B04C5
:10041000C2B7D21174007804120CEE75A0787D0278
:10042000120E32E580F4B4010474208033B4110458
:100430007460802CB4310474E08025B4710474A01D
:10044000801EB4020474108017B41204745080101B
:10045000B4320474D08009B47204749080027400C1
:10046000C4F975A07F855850855951120D458936BC
:10047000855058855159B91004C203817FD2037445
:10048000007804120CEEE55C600F301105855C5BB2
:10049000C211D55B04C2B7D211740C7804120CEEF1
:1004A000E5207004C20781AAD207E533B4100281A7
:1004B000BEE535B4100281BE753310753510E534D4
:1004C000B4100281D2E536B4100281D275341075B1
:1004D00036107540007405F5437803120CEE75A0D4
:1004E000717D01120E32E580F4F54475A07F780825
:1004F000120CEE75A0727D02120E32E580F475A02A
:100500007F540FF5457804120CEE120D067540016C
:10051000E543F47803120CEEE544F47808120CEE8F
:10052000E545F47804120CEE120D06D2B630A43371
:1005300030A602C2B57540007462F5437808120C0B
:10054000EEE54EF5447807120CEE120D06754001EB
:10055000E543F47808120CEEE544F47807120CEE4B
:10056000120D067544007545007540007406780349
:10057000F543120CEEAA47BA000D300B4AAB358595
:100580003335120D1DC148BA010D300B3AAB35851C
:100590003335120D1DC148BA020D300B2AAB35851B
:1005A0003435120D27C148BA030D300B1AAB35850F
:1005B0003435120D27C148BA0410300B0AAB35850B
:1005C0003635120D3BC1480207AFBA050D300BF7A7
:1005D000AB35853635120D3BC148BA060A300BE7FC
:1005E000AB35120D31C148BA070D300BDAAB35858A
:1005F0003635120D3BC148BA080D300BCAAB3585F4
:100600003335120D1DC148BA090D300BBAAB358513
:100610003435120D27C148BA0A0D300BAAAB358507
:100620003635120D3BC148BA0B0D300B9AAB3585F0
:100630003435120D27C148AA47BA0C0A300B88ABD3
:1006400035120D31C1484152200F08E535900F1485
:1006500093C159E535900EF093F5447804120CEEF1
:100660008B35AA47BA000D300B44AC3385353312B5
:100670000D31E130BA010D300B34AC338535331216
:100680000D31E130BA020A300B24AC33120D1DE1FA
:1006900030BA030D300B17AC33853533120D31E111
:1006A00030BA040D300B07AC33120D1DE1300208D7
:1006B0002DBA050D300BF7AC33853533120D31E112
:1006C00030BA060A300BE7AC33120D1DE130BA0721
:1006D0000D300BDAAC33853433120D27E130BA0814
:1006E0000D300BCAAC33853633120D3BE130BA09FD
:1006F0000D300BBAAC33853633120D3BE130BA0AFC
:100700000D300BAAAC33853433120D27E130BA0B10
:100710000D300B9AAC33853633120D3BE130AA47CE
:10072000BA0C0A300B88AC33120D1DE130020252B4
:10073000200F08E533900F1493E141E533900EF05C
:1007400093F5457804120CEE8C3375A0797D021276
:100750000E32E580F475A07F540F300D0CAD3EBD18
:1007600000028011D53E0C800C300B028007D53C76
:1007700002D20B440430070254FDF5467804120CF3
:10078000EE120D06D2B7754001E543F47803120C62
:10079000EEE544F47804120CEEE545F47804120C0E
:1007A000EEE546F47804120CEE120D060208A4BA27
:1007B0000006754AFF020827BA0106754AFF0208BB
:1007C00027BA0206754CFF020827BA0306754CFFCC
:1007D000020827BA0406754DFF020827BA050675F8
:1007E0004DFF020827BA0606754BFF020827BA0715
:1007F00006754DFF020827BA0806754AFF0208274A
:10080000BA0906754CFF020827BA0A06754DFF02A1
:100810000827BA0B06754CFF020827BA0C06754B61
:10082000FF020827020252753510020648BA000678
:10083000754BFF02089EBA0106754BFF02089EBA6F
:100840000206754AFF02089EBA0306754BFF0208AE
:100850009EBA0406754AFF02089EBA0505754BFF4D
:10086000019EBA0605754AFF019EBA0705754CFF41
:10087000019EBA0805754DFF019EBA0905754DFF29
:10088000019EBA0A05754DFF019EBA0B05754CFF16
:10089000019EBA0C06754AFF02089E020252753389
:1008A00010020730754400754500754000740378E8
:1008B00003F543120CEEAA47BA000E300B49AB34D5
:1008C000853634120D3B020992BA010B300B38AB5E
:1008D00034120D27020992BA020E300B2AAB34856E
:1008E0003534120D31020992BA030E300B19AB34B4
:1008F000853334120D1D020992BA040E300B08AB79
:1009000034120D27020992020B03BA050E300BF7C1
:10091000AB34853334120D1D020992BA060B300B2D
:10092000E6AB34120D27020992BA070E300BD8AB92
:1009300034853334120D1D020992BA080E300BC7EC
:10094000AB34853534120D31020992BA090E300BE1
:10095000B6AB34853534120D31020992BA0A0E3025
:100960000BA5AB34853534120D31020992BA0B0E4A
:10097000300B94AB34853334120D1D020992BA0C3E
:100980000E300B83AB34853634120D3B02099202D4
:100990000252200F09E534900F26930209A4E53492
:1009A000900F0293F5447804120CEE8B34AA47BAE8
:1009B000000E300B46AC36853436120D27020A86FF
:1009C000BA010B300B35AC36120D3B020A86BA0267
:1009D0000B300B27AC36120D3B020A86BA030B30E4
:1009E0000B19AC36120D3B020A86BA0411300B0B00
:1009F000AC36853536120D31020A86020B79BA05FE
:100A00000E300BF7AC36853436120D27020A86BA43
:100A1000060B300BE6AC36120D3B020A86BA070E07
:100A2000300BD8AC36853536120D31020A86BA083D
:100A30000E300BC7AC36853436120D27020A86BA43
:100A4000090E300BB6AC36853336120D1D020A8600
:100A5000BA0A0E300BA5AC36853336120D1D020ACC
:100A600086BA0B0E300B94AC36853536120D31023A
:100A70000A86BA0C0E300B83AC36853436120D273D
:100A8000020A86020252200F09E536900F269302D1
:100A90000A98E536900F0293F5457804120CEE8C17
:100AA000367580FF75A0797D02120E32E58075A043
:100AB0007FF454F0C4F5467804120CEE120D06E5EE
:100AC0004A554C554B554DF5807D02120E32D2A73A
:100AD0007DC8120E32C2A77580FF754001E543F450
:100AE0007803120CEEE544F47804120CEEE545F4BC
:100AF0007804120CEEE546F47804120CEE120D06A2
:100B0000020BEFBA0006754DFF020B73BA010675B2
:100B10004CFF020B73BA0206754BFF020B73BA034C
:100B200006754AFF020B73BA0405754CFF6173BA70
:100B30000505754AFF6173BA0605754CFF6173BA06
:100B40000705754AFF6173BA0805754BFF6173BAF3
:100B50000905754BFF6173BA0A05754BFF6173BADE
:100B60000B05754AFF6173BA0C06754DFF020B73D6
:100B7000020252753410020992BA0006754CFF0247
:100B80000BE9BA0106754DFF020BE9BA0206754D75
:100B9000FF020BE9BA0306754DFF020BE9BA040523
:100BA000754BFF61E9BA0505754CFF61E9BA0605A9
:100BB000754CFF61E9BA0705754BFF61E9BA080595
:100BC000754CFF61E9BA0905754AFF61E9BA0A0582
:100BD000754AFF61E9BA0B05754BFF61E9BA0C066E
:100BE000754CFF020BE9020252753610020A86307C
:100BF0009703020CAB7540007404F5437803120CA4
:100C0000EE75A0737D02120E32E580F4F54475A0F6
:100C10007F7808120CEE75A0747D02120E32E5800A
:100C200075A07F540FF4F5457804120CEE120D06F2
:100C3000754001E543F47803120CEEE544F47808BE
:100C4000120CEEE545F47804120CEE120D06020CBF
:100C5000AB7540007401F5437803120CEE75A07576
:100C60007D02120E32E580F4F54475A07F780812FB
:100C70000CEE75A0747D02120E32E58075A07F54D3
:100C8000F0C4F4F5457804120CEE120D067540011F
:100C9000E543F47803120CEEE544F47808120CEE08
:100CA000E545F47804120CEE120D0630A53720004D
:100CB0003420013120022E20032B0549E549B4FFE1
:100CC0002A754900053DE53DB42F20D2B5C2A77570
:100CD00080777D02D132D2A7754900753D00D2934D
:100CE000D294758702754900753D0002025230B4F6
:100CF000FD20B4FD7D20D132135006D2B10540A1B4
:100D000003C2B1D8E92230B4FD20B4FD7D20D13238
:100D1000E54054016004D2B1A11CC2B122E5330404
:100D2000900EF093F54A22E53404900F0293F54CAF
:100D300022E53504900EF093F54B22E53604900F32
:100D40000293F54D22E9540FB400167910755C003A
:100D5000E4B55004B55107221550B5510122155183
:100D600022B40215E4B550097908755C0475510385
:100D7000221550791075510322B40615E4B55009B7
:100D8000790A755C0375510322155079107551036A
:100D900022B40E15E4B55009790C755C0275510446
:100DA000221550791075510422B40A15E4B5500982
:100DB000790E755C01755105221550791075510534
:100DC00022B40115E4B551097906755C0475500328
:100DD000221551791075500322B40515E4B5510957
:100DE0007904755C03755003221551791075500311
:100DF00022B40D15E4B551097902755C02755004F1
:100E0000221551791075500422B40915E4B5510921
:100E10007900755C017550052215517910755005E2
:100E2000227910755C00227E287FF9DFFEDEFADD74
:100E3000F622DDFE227AAC7AB47ABC7AC47ACC7A15
:100E4000D47ADC7AE47AEC7AF47AFC7B047B0C7B4F
:100E5000147B1C7B247B2C7B347B3C7B447B4C7B3A
:100E6000547B5C7B647B6C7B747B7C7B847B8C7B2A
:100E7000947B9C7BA47BAC7BB47BBC7BC47BCC7B1A
:100E8000D47BDC7BE47BEC7BF47BFC7C047C0C7C07
:100E9000147C1C7C247C2C7C347C3C7C447C4C7CF2
:100EA000547C5C7C647C6C7C747C7C7C847C8C7CE2
:100EB000947C9C7CA47CAC7CB47CBC7CC47CCC7CD2
:100EC000D47CDC7CE47CEC7CF47CFC7D047D0C7DBF
:100ED000147D1C7D247D2C7D347D3C7D447D4C7DAA
:100EE000547D5C7D647D6CEEDDBB77FF00FF00FF11
:100EF000FBF7FAFBF9FDF8FEFCFEFDFDFEFBFFF73C
:100F000000FFFB7FFABFF9DFF8EFFCEFFDDFFEBF6C
:100F1000FF7F00FFFDF7F9FBF5FDF1FEF2FEF6FDA8
:100F2000FAFBFEF700FFFD7FF9BFF5DFF1EFF2EF0F
:080F3000F6DFFABFFE7F00FFAF
