:02000000802658
:03000300020F8564
:02000B00801B58
:02001300801358
:02001B00800B58
:02002300800358
:0A002600800075817075D0007587A9
:1000300000C2A775A0797D02120E67E580F475A055
:100040007F5402B4021B7D02120E5CC2B57D021207
:100050000E5CD2B57580FF7D05120E5CD2A7020042
:1000600031C2A7C20BC209C20CC20FC20DC20EC25E
:1000700008C212D210D211D2B6D2B77547FF754955
:10008000FF7548FF754AFF75450475A0727D04121F
:100090000E67E580F454F0C4F54475A07FD20A756C
:1000A0004600753D00753310753410753510753682
:1000B00010754D00754E00754F007550007551005C
:1000C000755200755300755400C2B575A0707D025D
:1000D000120E67E58020870DD20CC20A753C1420F1
:1000E0009703753C0C75A07F12113B855562E55551
:1000F00023F5569011D893F557E5560493F558D249
:1001000096D291C2907D02120E6774FF7808120E8B
:100110003D74107808120E3D74047806120E3D7D71
:1001200002120E67D2907D02120E67C2907D0212FB
:100130000E6774A47808120E3DE5577808120E3D3C
:10014000E5587806120E3D7D02120E67D2907D02B0
:10015000120E5C200E0ED294C293020EBBC2B57D6D
:1001600002120E5CC294D2B5D29375A0777D0212B2
:100170000E67E580540FF533E58054F0C475A07F19
:10018000F53575A0787D02120E67E580540FF534C1
:10019000E58054F0C475A07FF536752FFFE533B4C4
:1001A0000F11E535B40F10E534B40F0FE536B40F79
:1001B0000E21C1C27821A2C27821A7C27F21ACC280
:1001C0007FE52FF46027F4F5807D02120E67C2B53B
:1001D000D2A77D01120E5CC2A700007580FF00004F
:1001E000D2B5D2A77D02120E5CC2A7216AC2B57C2D
:1001F00007E4F530C2A7900E6A93F5807D04120ED5
:1002000067D2A77D0C120E5CE53004DCE57580FF3B
:10021000200C1B75A0707D01120E6720071020872F
:100220000DC20AD20C753C14209703753C0C75A0C6
:100230007F75200030A602415020A614200B05D265
:100240000B753E32D54507C2B57545044150D2B550
:1002500075A0777D01120E67E580F4B41004740276
:100260008033B412047406802CB41604740E8025F6
:10027000B41704740A801EB4080474018017B40A09
:100280000474058010B40E04740D8009B40F047456
:100290000980027400F975A07F854D4B854E4C1284
:1002A0000D5B8933854B4D854C4EB91004C203411B
:1002B000B3D20374017808120D04E568600F3010A2
:1002C00005856866C210D56604C2B6D21075A077DF
:1002D0007D01120E67E580F4B4200474108033B4FD
:1002E00022047450802CB4260474D68025B42704CC
:1002F0007490801EB4400474208017B4420474606B
:100300008010B4460474E08009B4470474A08002ED
:100310007400C4F975A07F854F4B85504C120D5B5E
:100320008935854B4F854C50B91004C2046131D2D8
:100330000474007808120D04E568600F301005851C
:100340006866C210D56604C2B6D21075A0787D0169
:10035000120E67E580F4B4080474018033B4180405
:100360007405802CB43804740D8025B478047409A5
:10037000801EB4040474028017B414047406801040
:10038000B43404740E8009B47404740A80027400D6
:10039000F975A07F85514B85524C120D5B893485D0
:1003A0004B51854C52B91004C20561AED2057400A0
:1003B0007808120D04E568600F301105856867C282
:1003C00011D56704C2B7D21175A0787D02120E67ED
:1003D000E580F4B4010474208033B41104746080A7
:1003E0002CB4310474E08025B4710474A0801EB470
:1003F000020474108017B4120474508010B43204D4
:1004000074D08009B47204749080027400C4F975C9
:10041000A07F85534B85544C120D5B8936854B5319
:10042000854C54B91004C206812CD20674C07808D9
:10043000120D04E568600F301105856867C211D59B
:100440006704C2B7D211E5207004C2078150D207F9
:10045000E533B410028164E535B41002816475336C
:1004600010753510E534B410028178E536B4100209
:100470008178753410753610753F007405F5407835
:1004800003120D041210EEE531030303F541780564
:10049000120D04E532F5427807120D04120D1C7599
:1004A0003F01E540F47803120D04E541F4780512AC
:1004B0000D04E542F47807120D04120D1C30A6025B
:1004C000C2B5753F00E563F5407808120D04E555A7
:1004D000F5417807120D04120D1CD2B6753F01E5E7
:1004E00040F47808120D04E541F47807120D041267
:1004F0000D1CD2B7754100754200753F0074067837
:1005000003F540120D04AA44BA000D300A5AAB3567
:10051000853335120D33A1E7BA010D300A4AAB35E8
:10052000853335120D33A1E7BA020D300A3AAB35E7
:10053000853435120D3DA1E7BA030D300A2AAB35DB
:10054000853435120D3DA1E7BA040D300A1AAB35DA
:10055000853635120D51A1E7BA0510300A0AAB35C0
:10056000853635120D51A1E702077EBA060A300A18
:10057000F7AB35120D47A1E7BA070D300AEAAB35E4
:10058000853635120D51A1E7BA080D300ADAAB35C0
:10059000853335120D33A1E7BA090D300ACAAB35E0
:1005A000853435120D3DA1E7BA0A0D300ABAAB35D4
:1005B000853635120D51A1E7BA0B0D300AAAAB35BD
:1005C000853435120D3DA1E7BA0C0A300A9AAB35D5
:1005D000120D47A1E7BA0D0D300A8DAB35853335C5
:1005E000120D33A1E74110E535900E8593F5417862
:1005F00004120D048B35AA44BA000D300A54AC33F2
:10060000853533120D47C1D2BA010D300A44AC33DF
:10061000853533120D47C1D2BA020A300A34AC33E1
:10062000120D33C1D2BA030D300A27AC33853533EE
:10063000120D47C1D2BA040A300A17AC33120D3377
:10064000C1D2BA0510300A0AAC33853533120D47D2
:10065000C1D20207FEBA060A300AF7AC33120D33D4
:10066000C1D2BA070D300AEAAC33853433120D3DDE
:10067000C1D2BA080D300ADAAC33853633120D51C7
:10068000C1D2BA090D300ACAAC33853633120D51C6
:10069000C1D2BA0A0D300ABAAC33853433120D3DDB
:1006A000C1D2BA0B0D300AAAAC33853633120D51C4
:1006B000C1D2BA0C0A300A9AAC33120D33C1D2BA85
:1006C0000D0D300A8DAC33853433120D3DC1D2028D
:1006D0000210E533900E7393F5427804120D048CEA
:1006E0003375A0797D02120E67E580F475A07F5402
:1006F0000FFD5403B40308ED540DFDD212E10CB408
:100700000104C212E10C301203020028ED540DF571
:1007100043ED5403200F0A200707B40204D20FE16F
:1007200027B40103C20F00300F06E5434402E13253
:10073000E543300B0CAD3EBD0002800FD53E0A8074
:100740000A300A028005D53C004404F543780412BF
:100750000D04120D1C753F01E540F47803120D04E1
:10076000E541F47804120D04E542F47804120D0416
:10077000E543F47804120D04120D1C02087EBA0041
:10078000067547FF0207F8BA01067547FF0207F82A
:10079000BA02067549FF0207F8BA03067549FF0257
:1007A00007F8BA0406754AFF0207F8BA0505754A44
:1007B000FF8045BA06057548FF803DBA0705754AB2
:1007C000FF8035BA08057547FF802DBA09057549C0
:1007D000FF8025BA0A05754AFF801DBA0B057549C9
:1007E000FF8015BA0C067548FF0207F8BA0D0675AA
:1007F00047FF0207F80202107535100205E7BA003C
:10080000067548FF020878BA01067548FF020878A5
:10081000BA02067547FF020878BA03067548FF0258
:100820000878BA04067547FF020878BA05057548C6
:10083000FF8045BA06057547FF803DBA0705754933
:10084000FF8035BA0805754AFF802DBA0905754A3B
:10085000FF8025BA0A05754AFF801DBA0B05754948
:10086000FF8015BA0C067547FF020878BA0D0675A9
:1008700049FF0208780202107533100206D2754152
:1008800000754200753F0074037803F540120D04B3
:10089000AA44BA000E300A5AAB34853634120D51D0
:1008A00002097DBA010B300A49AB34120D3D020931
:1008B0007DBA020E300A3BAB34853534120D470247
:1008C000097DBA030E300A2AAB34853334120D3356
:1008D00002097DBA040B300A19AB34120D3D02092E
:1008E0007DBA0511300A0BAB34853334120D330257
:1008F000097D020AE4BA060B300AF7AB34120D3D4B
:1009000002097DBA070E300AE9AB34853334120D83
:100910003302097DBA080E300AD8AB34853534125B
:100920000D4702097DBA090E300AC7AB348535344C
:10093000120D4702097DBA0A0E300AB6AB3485356E
:1009400034120D4702097DBA0B0E300AA5AB34856F
:100950003334120D3302097DBA0C0E300A94AB34D5
:10096000853634120D5102097DBA0D0E300A83AB63
:1009700034853534120D4702097D020210E53490AA
:100980000E9793F5417804120D048B34AA44BA00F3
:100990000E300A57AC36853436120D3D020A73BA52
:1009A000010B300A46AC36120D51020A73BA020B23
:1009B000300A38AC36120D51020A73BA030B300AF2
:1009C0002AAC36120D51020A73BA040E300A1CAC5E
:1009D00036853536120D47020A73BA0511300A0BF7
:1009E000AC36853436120D3D020A73020B61BA062D
:1009F0000B300AF7AC36120D51020A73BA070E30EB
:100A00000AE9AC36853536120D47020A73BA080E6C
:100A1000300AD8AC36853436120D3D020A73BA0955
:100A20000E300AC7AC36853336120D33020A73BA5C
:100A30000A0E300AB6AC36853336120D33020A730D
:100A4000BA0B0E300AA5AC36853536120D47020AB0
:100A500073BA0C0E300A94AC36853436120D3D0252
:100A60000A73BA0D0B300A83AC36120D51020A73A9
:100A7000020210E536900EA993F5427804120D0497
:100A80008C367580FF75A0797D02120E67E5807542
:100A9000A07FF454F0C4F5437804120D04120D1C29
:100AA000E54755495548554AF5807D02120E67D2F3
:100AB000A77DC8120E67C2A77580FF753F01E5408C
:100AC000F47803120D04E541F47804120D04E542B4
:100AD000F47804120D04E543F47804120D04120DA9
:100AE0001C020BE0BA0006754AFF020B5BBA010656
:100AF0007549FF020B5BBA02067548FF020B5BBA31
:100B000003067547FF020B5BBA04057549FF804B6E
:100B1000BA05057547FF8043BA06057549FF803B56
:100B2000BA07057547FF8033BA08057548FF802B63
:100B3000BA09057548FF8023BA0A057548FF801B6E
:100B4000BA0B057547FF8013BA0C05754AFF800B79
:100B5000BA0D057548FF80030202107534100209B2
:100B60007DBA00067549FF020BDABA0106754AFF25
:100B7000020BDABA0206754AFF020BDABA030675EF
:100B80004AFF020BDABA04057548FF804DBA050525
:100B90007549FF8045BA06057549FF803DBA0705CE
:100BA0007548FF8035BA08057549FF802DBA0905DB
:100BB0007547FF8025BA0A057547FF801DBA0B05EA
:100BC0007548FF8015BA0C067549FF020BDABA0D9D
:100BD00006754AFF020BDA020210753610020A731C
:100BE000309703020C99753F007404F540780312A6
:100BF0000D0475A0737D02120E67E580F4F5417552
:100C0000A07F7808120D0475A0747D02120E67E5AE
:100C10008075A07F540FF4F5427804120D04120D74
:100C20001C753F01E540F47803120D04E541F478AA
:100C300008120D04E542F47804120D04120D1C751F
:100C40003F007401F5407803120D0475A0757D0214
:100C5000120E67E580F4F54175A07F7808120D0447
:100C600075A0747D02120E67E58075A07F54F0C4F4
:100C7000F4F5427804120D04120D1C753F01E54095
:100C8000F47803120D04E541F47808120D04E542EE
:100C9000F47804120D04120D1CE53CB40002D20AD3
:100CA00020035820045520055220064F0546E546EE
:100CB000B4804E75460030A542053DE53DB448413F
:100CC000D2B5754600753D0075A079D294C2937572
:100CD000A0797D02120E67E58075A07FF454027042
:100CE000EE7D05120E5C75A0797D02120E67E5801F
:100CF00075A07FF4540260EE020061754600753DF8
:100D00000002021030B4FD20B4FD7D20D1671350E5
:100D100006D2B1053FA119C2B1D8E92230B4FD20F5
:100D2000B4FD7D20D167E53F54016004D2B1A1320A
:100D3000C2B122E53304900E7393F54722E53404E3
:100D4000900E9793F54922E53504900E8593F5486A
:100D500022E53604900EA993F54A22E9540FB40017
:100D6000167910756800E4B54B04B54C0722154B95
:100D7000B54C0122154C22B40215E4B54B09790893
:100D8000756804754C0322154B7910754C0322B419
:100D90000615E4B54B09790A756803754C032215ED
:100DA0004B7910754C0322B40E15E4B54B09790C40
:100DB000756802754C0422154B7910754C0422B4E9
:100DC0000A15E4B54B09790E756801754C052215B5
:100DD0004B7910754C0522B40115E4B54C09790620
:100DE000756804754B0322154C7910754B0322B4BA
:100DF0000515E4B54C097904756803754B03221594
:100E00004C7910754B0322B40D15E4B54C097902E9
:100E1000756802754B0422154C7910754B0422B489
:100E20000915E4B54C097900756801754B05221563
:100E30004C7910754B05227910756800227D0412DB
:100E40000E67335004D292C14BC2927D02120E67DC
:100E5000C2917D02120E67D291D8E2227E287FF9DC
:100E6000DFFEDEFADDF622DDFE22FFFFFF00FF00DF
:100E7000FF00FFFDF7F9F7F5F7F1F7F2FBF6FBFAE4
:100E8000FBFEFB00FFFDFEF9FEF5FEF1FEF2FDF6B6
:100E9000FDFAFDFEFD00FFFDDFF9DFF5DFF1DFF21A
:100EA000EFF6EFFAEFFEEF00FFFDBFF9BFF5BFF180
:100EB000BFF27FF67FFA7FFE7F00FF755900755AFB
:100EC00000755B00752400756500D288D2A8D2AF8A
:100ED000E565B4DC07200D4ED208E126E55BB40FD2
:100EE00005755B00E126E559B40802E126E524B466
:100EF00007DE752400755900C2AFD2B57D28120EE9
:100F00005CC2B57D01120E5CD2B57D03120E5CC2CF
:100F1000B57D01120E5CD2B57D03120E5CC2B57DAB
:100F200001120E5C80D4C2AF200D43E564544060D2
:100F300033E5645430B40008E555940CF555E16987
:100F4000B41008E5559418F555E169B42008E55545
:100F50009424F555E169B43008E5559430F555E130
:100F600069020028C294020164D20D0200EE30082A
:100F70000A856255D2B5D20E0200EED2B57D0312BB
:100F80000E5C02015DC0E02096020565A2B09201F0
:100F9000E524B40005120FAD800EB40105120FF761
:100FA0008006B40303121059D2AFD0E032A201E59B
:100FB0005F13F55FE55E13F55EE55D13F55DE55CDA
:100FC00013F55CE55CB4011FE55DB4001AE55EB4A1
:100FD0000015E55FB4C010D220755A00755B00752E
:100FE00065001210EEE1F3055AE55AB48005755A12
:100FF00000055B756000220560A201E55F13F55FE7
:10100000E55E13F55EE55D13F55DE55C13F55CE506
:1010100060B420441210AA200233AF5CE55EF4B540
:10102000072BE55D547FFFE55FF4547FB5071EE5B0
:101030005CB53119E55D541FB53212E55EF4B5318A
:101040000CE55FF4541FB53204D22101557524001C
:1010500005591210EE756000220560A201E55F13CC
:10106000F55FE55E13F55EE55D13F55DE55C13F593
:101070005CE560B420331210AA200225AF5CE55E67
:10108000F4B5071DE55D547FFFE55FF4547FB507B8
:1010900010E55CB5630BE55D543FB55504D2220104
:1010A000A6055975240075600022756100E55C1283
:1010B00010E3E55D1210E375F002E56184E5F06090
:1010C00002801D756101E55E1210E3E55F1210E319
:1010D00075F002E56184E5F060028004C2028002DE
:1010E000D20222C37F081350020561DFF92275A0E6
:1010F000717D02120E67E580F4FC23232354F8442B
:1011000005F53175A07FECC4035407FC75A0727D12
:1011100002120E67E580F4C403F875A0707D021218
:101120000E67E580F454407005E854782131E854A6
:101130001875A07F4CF53275A07F2275630075A0ED
:10114000707D02120E67E580F4547FF564543FF51C
:1011500055E5645440700775A07F7563622275A0E1
:101160007FE5645430B400057563E22183B4100553
:101170007563EA2183B420057563F22183B43003DB
:101180007563FAE564540FB4000475553022B40158
:101190000475553122B4020475553222B403047526
:1011A000553322B4040475553422B40504755535FD
:1011B00022B4060475553622B4070475553722B497
:1011C000080475553822B4090475553922B40A0447
:1011D00075553A227555C0221D0C1D141D1C1D2469
:1011E0001D2C1D341D3C1D441D4C1D541D5C1D64D7
:1011F0001D6C1D741D7C1D841D8C1D941D9C1DA4C7
:101200001DAC1DB41DBC1DC41DCC1DD41DDC1DE4B6
:101210001DEC1DF41DFC1E041E0C1E141E1C1E24A1
:101220001E2C1E341E3C1E441E4C1E541E5C1E648E
:101230001E6C1E741E7C1E841E8C1E941E9C1EA47E
:0E1240001EAC1EB41EBC1EC41ECC1ED41EDC72
