:02000000802658
:03000300020FCC1D
:02000B00801B58
:02001300801358
:02001B00800B58
:02002300800358
:0A002600800075817075D0007587A9
:100030000075A0797D02120ECAE580F475A07F5488
:1000400002B402117D02120EBFC2B57D02120EBFB4
:10005000D2B5020031C2A7C20BC209C20CC20FC284
:100060000DC20EC208C212D210D211D2B6D2B775CA
:1000700047FF7549FF7548FF754AFF75450475A030
:10008000727D04120ECAE580F454F0C4F54475A0E4
:100090007FD20A754600753D0075331075341075B2
:1000A0003510753610754D00754E00754F00755042
:1000B00000755100755200755300755400C2B57536
:1000C000A0707D02120ECAE58020870DD20CC20AF4
:1000D000753C14209703753C0C75A07F1211818527
:1000E0005562D293D294D290D291D292E55523F513
:1000F0005690121E93F557E5560493F558200E605E
:10010000D291C2907D02120ECA74F07808120EA02D
:1001100074037808120EA074547806120EA07D04A1
:10012000120ECAD2907D64120ECAC2907D02120EC7
:10013000CA74A47808120EA074287806120EA0E5DE
:1001400064042344017808120EA07D04120ECAD262
:10015000907D02120EBF020EFAC2B57D02120EBFD2
:10016000C2937D01120EBFD291C2907D02120ECABF
:1001700074F07808120EA074037808120EA074545C
:100180007806120EA07D02120ECAD2907D02120EC7
:10019000CAC2907D02120ECA74547808120EA0E5ED
:1001A000577808120EA0E5587806120EA07D0212AC
:1001B0000ECAD2907D64120ECA2095FD7D02120EE9
:1001C000CAC2947D08120EBFD2B575A0777D021207
:1001D0000ECAE580540FF533E58054F0C475A07F56
:1001E000F53575A0787D02120ECAE580540FF534FE
:1001F000E58054F0C475A07FF536752FFFE533B464
:100200000F11E535B40F10E534B40F0FE536B40F18
:100210000E4121C2784102C2784107C27C410CC222
:100220007CE52FF46027F4F5807D02120ECAC2B57A
:10023000D2A77D01120EBFC2A700007580FF00008B
:10024000D2B5D2A77D02120EBFC2A721CA200C1BB5
:1002500075A0707D01120ECA20071020870DC20AFA
:10026000D20C753C14209703753C0C75A07F75204B
:100270000030A602418D20A614200B05D20B753E3E
:1002800032D54507C2B5754504418DD2B575A07705
:100290007D01120ECAE580F4B4100474028033B4F8
:1002A00012047406802CB41604740E8025B417044E
:1002B000740A801EB4080474018017B40A0474051B
:1002C0008010B40E04740D8009B40F047409800208
:1002D0007400F975A07F854D4B854E4C120DBE897B
:1002E00033854B4D854C4EB91004C20341F0D20307
:1002F00074017808120D67E568600F301005856895
:1003000066C210D56604C2B6D21075A0777D011200
:100310000ECAE580F4B4200474108033B42204744F
:1003200050802CB4260474D68025B42704749080A1
:100330001EB4400474208017B4420474608010B46A
:10034000460474E08009B4470474A080027400C4B9
:10035000F975A07F854F4B85504C120DBE893585B0
:100360004B4F854C50B91004C204616ED204740026
:100370007808120D67E568600F301005856866C261
:1003800010D56604C2B6D21075A0787D01120ECACF
:10039000E580F4B4080474018033B4180474058053
:1003A0002CB43804740D8025B478047409801EB40C
:1003B000040474028017B4140474068010B4340466
:1003C000740E8009B47404740A80027400F975A074
:1003D0007F85514B85524C120DBE8934854B51851A
:1003E0004C52B91004C20561EBD2057400780812B2
:1003F0000D67E568600F301105856867C211D56724
:1004000004C2B7D21175A0787D02120ECAE580F43D
:10041000B4010474208033B411047460802CB431AE
:100420000474E08025B4710474A0801EB4020474C6
:10043000108017B4120474508010B4320474D08049
:1004400009B47204749080027400C4F975A07F85A9
:10045000534B85544C120DBE8936854B53854C54F5
:10046000B91004C2068169D20674C07808120D67FB
:10047000E568600F301105856867C211D56704C251
:10048000B7D211E5207004C207818DD20730A428AD
:10049000E533B4100281A4E535B4100281A47533AC
:1004A00010753510E534B4100281B8E536B4100289
:1004B00081B8753410753610753F007405F54078B5
:1004C00003120D67121134E531030303F54178057A
:1004D000120D67E532F5427807120D67120D7F7530
:1004E0003F01E540F47803120D67E541F478051209
:1004F0000D67E542F47807120D67120D7F30A602F2
:10050000C2B5753F00E563F5407808120D67E55503
:10051000F5417807120D67120D7FD2B6753F01E5E0
:1005200040F47808120D67E541F47807120D671260
:100530000D7FD2B7754100754200753F0074067893
:1005400003F540120D67AA44BA000D300A5AAB35C4
:10055000853335120D96C127BA010D300A4AAB35E5
:10056000853335120D96C127BA020D300A3AAB35E4
:10057000853435120DA0C127BA030D300A2AAB35D8
:10058000853435120DA0C127BA040D300A1AAB35D7
:10059000853635120DB4C127BA0510300A0AAB35BD
:1005A000853635120DB4C1270207BEBA060A300AD5
:1005B000F7AB35120DAAC127BA070D300AEAAB35E1
:1005C000853635120DB4C127BA080D300ADAAB35BD
:1005D000853335120D96C127BA090D300ACAAB35DD
:1005E000853435120DA0C127BA0A0D300ABAAB35D1
:1005F000853635120DB4C127BA0B0D300AAAAB35BA
:10060000853435120DA0C127BA0C0A300A9AAB35D1
:10061000120DAAC127BA0D0D300A8DAB35853335C1
:10062000120D96C127414DE535900ED693F54178D0
:1006300004120D678B35AA44BA000D300A54AC334E
:10064000853533120DAAE112BA010D300A44AC33DC
:10065000853533120DAAE112BA020A300A34AC33DE
:10066000120D96E112BA030D300A27AC33853533EB
:10067000120DAAE112BA040A300A17AC33120D9611
:10068000E112BA0510300A0AAC33853533120DAACF
:10069000E112020845BA060A300AF7AC33120D9689
:1006A000E112BA070D300AEAAC33853433120DA0DB
:1006B000E112BA080D300ADAAC33853633120DB4C4
:1006C000E112BA090D300ACAAC33853633120DB4C3
:1006D000E112BA0A0D300ABAAC33853433120DA0D8
:1006E000E112BA0B0D300AAAAC33853633120DB4C1
:1006F000E112BA0C0A300A9AAC33120D96E112BA22
:100700000D0D300A8DAC33853433120DA0E1120289
:10071000024DE533900ED693F5427804120D678CA6
:100720003375A0797D02120ECAE580F475A07F545E
:100730000FFD5403B40308ED540DFDD212E14CB487
:100740000104C212E14C301203020028ED540DF5F1
:1007500043ED5403200F0A200707B40204D20FE12F
:1007600067B40103C20F00300F06E5434402E17293
:10077000E543300B0CAD3EBD0002800FD53E0A8034
:100780000A300A028005D53C004404F5437804127F
:100790000D67120D7F753F01E540F47803120D6778
:1007A000E541F47804120D67E542F47804120D6710
:1007B000E543F47804120D67120D7F0208CCBA00ED
:1007C000067547FF02083FBA01067547FF02083F5A
:1007D000BA02067549FF02083FBA03067549FF02CF
:1007E000083FBA0406754AFF02083FBA0506754A73
:1007F000FF02083FBA06067548FF02083FBA07061F
:10080000754AFF02083FBA08067547FF02083FBA5B
:1008100009067549FF02083FBA0A06754AFF020831
:100820003FBA0B067549FF02083FBA0C067548FF30
:1008300002083FBA0D067547FF02083F02024D75D8
:100840003510020627BA00067548FF0208C6BA012D
:10085000067548FF0208C6BA02067547FF0208C6B9
:10086000BA03067548FF0208C6BA04067547FF02B8
:1008700008C6BA05067548FF0208C6BA06067547D7
:10088000FF0208C6BA07067549FF0208C6BA08067D
:10089000754AFF0208C6BA0906754AFF0208C6BAB9
:1008A0000A06754AFF0208C6BA0B067549FF020818
:1008B000C6BA0C067547FF0208C6BA0D067549FF91
:1008C0000208C602024D7533100207127541007509
:1008D0004200753F0074037803F540120D67AA4487
:1008E000BA000E300A5AAB34853634120DB4020900
:1008F000CBBA010B300A49AB34120DA00209CBBAB6
:10090000020E300A3BAB34853534120DAA0209CBF6
:10091000BA030E300A2AAB34853334120D9602091D
:10092000CBBA040B300A19AB34120DA00209CBBAB2
:100930000511300A0BAB34853334120D960209CB06
:10094000020B32BA060B300AF7AB34120DA00209C3
:10095000CBBA070E300AE9AB34853334120D960258
:1009600009CBBA080E300AD8AB34853534120DAA3B
:100970000209CBBA090E300AC7AB34853534120DE3
:10098000AA0209CBBA0A0E300AB6AB348535341246
:100990000DAA0209CBBA0B0E300AA5AB348533344D
:1009A000120D960209CBBA0C0E300A94AB34853680
:1009B00034120DB40209CBBA0D0E300A83AB348564
:1009C0003534120DAA0209CB02024DE534900EE82F
:1009D00093F5417804120D678B34AA44BA000E30A7
:1009E0000A57AC36853436120DA0020AC1BA010B83
:1009F000300A46AC36120DB4020AC1BA020B300AF4
:100A000038AC36120DB4020AC1BA030B300A2AAC54
:100A100036120DB4020AC1BA040E300A1CAC368577
:100A20003536120DAA020AC1BA0511300A0BAC36CE
:100A3000853436120DA0020AC1020BB9BA060B307A
:100A40000AF7AC36120DB4020AC1BA070E300AE931
:100A5000AC36853536120DAA020AC1BA080E300A24
:100A6000D8AC36853436120DA0020AC1BA090E3050
:100A70000AC7AC36853336120D96020AC1BA0A0E81
:100A8000300AB6AC36853336120D96020AC1BA0B5F
:100A90000E300AA5AC36853536120DAA020AC1BA47
:100AA0000C0E300A94AC36853436120DA0020AC101
:100AB000BA0D0B300A83AC36120DB4020AC1020221
:100AC0004DE536900EE893F5427804120D678C36AA
:100AD0007580FF75A0797D02120ECAE58075A07F32
:100AE000F454F0C4F5437804120D67120D7FE54706
:100AF00055495548554AF5807D02120ECAD2A77D48
:100B0000C8120ECAC2A77580FF753F01E540F47890
:100B100003120D67E541F47804120D67E542F4789D
:100B200004120D67E543F47804120D67120D7F027D
:100B30000C40BA0006754AFF020BB3BA01067549AC
:100B4000FF020BB3BA02067548FF020BB3BA0306E5
:100B50007547FF020BB3BA04067549FF020BB3BA1F
:100B600005067547FF020BB3BA06067549FF020B6F
:100B7000B3BA07067547FF020BB3BA08067548FFFC
:100B8000020BB3BA09067548FF020BB3BA0A067521
:100B900048FF020BB3BA0B067547FF020BB3BA0C42
:100BA00006754AFF020BB3BA0D067548FF020BB378
:100BB00002024D7534100209CBBA00067549FF02D6
:100BC0000C3ABA0106754AFF020C3ABA0206754A97
:100BD000FF020C3ABA0306754AFF020C3ABA040641
:100BE0007548FF020C3ABA05067549FF020C3ABA7D
:100BF00006067549FF020C3ABA07067548FF020C53
:100C00003ABA08067549FF020C3ABA09067547FF59
:100C1000020C3ABA0A067547FF020C3ABA0B06757F
:100C200048FF020C3ABA0C067549FF020C3ABA0D9D
:100C300006754AFF020C3A02024D753610020AC1CF
:100C4000309703020CF9753F007404F540780312E5
:100C50000D6775A0737D02120ECAE580F4F541752B
:100C6000A07F7808120D6775A0747D02120ECAE588
:100C70008075A07F540FF4F5427804120D67120DB1
:100C80007F753F01E540F47803120D67E541F47884
:100C900008120D67E542F47804120D67120D7F7596
:100CA0003F007401F5407803120D6775A0757D0251
:100CB000120ECAE580F4F54175A07F7808120D6721
:100CC00075A0747D02120ECAE58075A07F54F0C431
:100CD000F4F5427804120D67120D7F753F01E5406F
:100CE000F47803120D67E541F47808120D67E542C8
:100CF000F47804120D67120D7FE53CB40002D20AAD
:100D000020035B2004582005552006520546E54681
:100D1000B4805175460030A545053DE53DB44844D5
:100D2000D2B5754600753D0075A079D293D2947501
:100D3000870275A0797D02120ECAE58075A07FF446
:100D4000540270EE7D05120EBF75A0797D02120E61
:100D5000CAE58075A07FF4540260EE020055754626
:100D600000753D0002024D30B4FD20B4FD7D20D160
:100D7000CA135006D2B1053FA17CC2B1D8E92230D6
:100D8000B4FD20B4FD7D20D1CAE53F54016004D2FA
:100D9000B1A195C2B122E53304900ED693F5472256
:100DA000E53404900EE893F54922E53504900ED61B
:100DB00093F54822E53604900EE893F54A22E9546B
:100DC0000FB400167910756800E4B54B04B54C07F4
:100DD00022154BB54C0122154C22B40215E4B54B3B
:100DE000097908756804754C0322154B7910754C08
:100DF0000322B40615E4B54B09790A756803754CEE
:100E00000322154B7910754C0322B40E15E4B54B33
:100E100009790C756802754C0422154B7910754CD4
:100E20000422B40A15E4B54B09790E756801754CB6
:100E30000522154B7910754C0522B40115E4B54C0B
:100E4000097906756804754B0322154C7910754BAA
:100E50000322B40515E4B54C097904756803754B94
:100E60000322154C7910754B0322B40D15E4B54CD3
:100E7000097902756802754B0422154C7910754B7F
:100E80000422B40915E4B54C097900756801754B65
:100E90000522154C7910754B0522791075680022D2
:100EA0007D04120ECA335004D292C1AEC2927D02AA
:100EB000120ECAC2917D02120ECAD291D8E2227ECF
:100EC000287FF9DFFEDEFADDF622DDFE22EEDDBB55
:100ED00077FF00FF00FFFDF7F9FBF5FDF1FEF2FEE5
:100EE000F6FDFAFBFEF700FFFD7FF9BFF5DFF1EF3E
:100EF000F2EFF6DFFABFFE7F00FF755900755A006A
:100F0000755B00752400756500D288D2A8D2AFE564
:100F100065B4DC07200D4ED208E165E55BB40F0532
:100F2000755B00E165E559B40802E165E524B407A5
:100F3000DE752400755900C2AFD2B57D28120EBFF0
:100F4000C2B57D01120EBFD2B57D03120EBFC2B570
:100F50007D01120EBFD2B57D03120EBFC2B57D0159
:100F6000120EBF80D4C2AF200D46E56454406033FA
:100F7000E5645430B40008E555940CF555E1ABB484
:100F80001008E5559418F555E1ABB42008E55594E3
:100F900024F555E1ABB43008E5559430F555E1AB97
:100FA00002002820B302C1FA020160D20D0200E261
:100FB00030080A856255D2B5D20E0200E2D2B57D64
:100FC00003120EBF20B302C1FA020159C0E02096FD
:100FD000020565A2B09201E524B40004F1F3E1EE4C
:100FE000B4010512103DE1EEB4030312109FD2AF1D
:100FF000D0E032A201E55F13F55FE55E13F55EE533
:101000005D13F55DE55C13F55CE55CB4011FE55D22
:10101000B4001AE55EB40015E55FB4C010D22075C7
:101020005A00755B007565001211340139055AE5E7
:101030005AB48005755A00055B756000220560A2F0
:1010400001E55F13F55FE55E13F55EE55D13F55DA4
:10105000E55C13F55CE560B420441210F020023327
:10106000AF5CE55EF4B5072BE55D547FFFE55FF40B
:10107000547FB5071EE55CB53119E55D541FB532E7
:1010800012E55EF4B5310CE55FF4541FB53204D2BD
:1010900021019B7524000559121134756000220549
:1010A00060A201E55F13F55FE55E13F55EE55D1394
:1010B000F55DE55C13F55CE560B420331210F020BB
:1010C0000225AF5CE55EF4B5071DE55D547FFFE5E5
:1010D0005FF4547FB50710E55CB5630BE55D543FE5
:1010E000B55504D22201EC05597524007560002223
:1010F000756100E55C121129E55D12112975F00298
:10110000E56184E5F06002801D756101E55E121104
:1011100029E55F12112975F002E56184E5F06002AE
:101120008004C2028002D20222C37F08135002054B
:1011300061DFF92275A0717D02120ECAE580F4FC10
:1011400023232354F84405F53175A07FECC40354E0
:1011500007FC75A0727D02120ECAE580F4C403F884
:1011600075A0707D02120ECAE580F454407005E847
:1011700054782177E8541875A07F4CF53275A07F1C
:101180002275630075A0707D02120ECAE580F454CA
:101190007FF564543FF555E5645440700775A07FB2
:1011A0007563622275A07FE5645430B400057563F1
:1011B000E221C9B410057563EA21C9B4200575633D
:1011C000F221C9B430037563FAE564540FB4000426
:1011D00075553022B4010475553122B40204755599
:1011E0003222B4030475553322B4040475553422F5
:1011F000B4050475553522B4060475553622B40776
:101200000475553722B4080475553822B40904759D
:10121000553922B40A0475553A227555C0225E2C00
:101220005E345E3C5E445E4C5E545E5C5E645E6C4E
:101230005E745E7C5E845E8C5E945E9C5EA45EAC3E
:101240005EB45EBC5EC45ECC5ED45EDC5EE45EEC2E
:101250005EF45EFC5F045F0C5F145F1C5F245F2C18
:101260005F345F3C5F445F4C5F545F5C5F645F6C06
:101270005F745F7C5F845F8C5F945F9C5FA45FACF6
:101280005FB45FBC5FC45FCC5FD45FDC5FE45FECE6
:041290005FF45FFCAC
