:02000000802658
:03000300020F8F5A
:02000B00801B58
:02001300801358
:02001B00800B58
:02002300800358
:0A002600800075817075D0007587A9
:100030000075A0797D02120E71E580F475A07F54E1
:1000400002B402117D02120E66C2B57D02120E6666
:10005000D2B5020031C2A7C20BC209C20CC20DC286
:100060000EC208C2187547FF7549FF7548FF754AEB
:10007000FF75450475A0727D04120E71E580F4547D
:10008000F0C4F54475A07FD20A754600753D007531
:100090003310753410753510753610754D00754E6A
:1000A00000754F0075500075510075520075530072
:1000B000755400C2B575A0707D02120E71E58020E6
:1000C000870DD20CC20A753C14209703753C0C7541
:1000D000A07F121138855562E55523F5569011D849
:1000E00093F557E5560493F558D296D291C2907D78
:1000F00002120E7174FF7808120E477410780812FD
:100100000E4774047806120E477D02120E71D290CB
:100110007D02120E71C2907D02120E7174A47808D5
:10012000120E47E5577808120E47E5587806120E6A
:10013000477D02120E71D2907D02120E66200E0EC5
:10014000D294C293020EC5C2B57D02120E66C2944D
:10015000D2B5D29375A0777D02120E71E580540F4F
:10016000F533E58054F0C475A07FF53575A0787D32
:1001700002120E71E580540FF534E58054F0C47519
:10018000A07FF536752FFFE533B40F11E535B40FB9
:1001900010E534B40F0FE536B40F0E800EC2788030
:1001A000EBC27880ECC27F80EDC27FE52FF460283F
:1001B000F4F5807D02120E71C2B5D2A77D01120E38
:1001C00066C2A700007580FF0000D2B5D2A77D02ED
:1001D000120E66C2A7020154C2B57C07E4F530C214
:1001E000A7900E7493F5807D04120E71D2A77D0C3A
:1001F000120E66E53004DCE57580FF200C1B75A04F
:10020000707D01120E7120071020870DC20AD20CDA
:10021000753C14209703753C0C75A07F7520003049
:10022000A602801720A614200B05D20B753E32D5EE
:100230004507C2B57545048002D2B575A0777D012A
:10024000120E71E580F4B4100474028033B4120409
:100250007406802CB41604740E8025B41704740A36
:10026000801EB4080474018017B40A047405801059
:10027000B40E04740D8009B40F0474098002740074
:10028000F975A07F854D4B854E4C120D83893385C2
:100290004B4D854C4EB91004C2038002D203740149
:1002A0007808120D2A75A0777D01120E71E580F491
:1002B000B4200474108033B422047450802CB4260B
:1002C0000474D68025B427047490801EB44004744E
:1002D000208017B4420474608010B4460474E08037
:1002E00009B4470474A080027400C4F975A07F8526
:1002F0004F4B85504C120D838935854B4F854C50A3
:10030000B91004C2048002D20474007808120D2AC5
:1003100075A0787D01120E71E580F4B408047401B3
:100320008033B418047405802CB43804740D80250F
:10033000B478047409801EB4040474028017B414E1
:100340000474068010B43404740E8009B474047408
:100350000A80027400F975A07F85514B85524C12BA
:100360000D838934854B51854C52B91004C20580E8
:1003700002D20574007808120D2A75A0787D021249
:100380000E71E580F4B4010474208033B411047458
:1003900060802CB4310474E08025B4710474A080B2
:1003A0001EB4020474108017B4120474508010B488
:1003B000320474D08009B47204749080027400C452
:1003C000F975A07F85534B85544C120D8389368572
:1003D0004B53854C54B91004C2068002D20674C037
:1003E0007808120D2AE5207004C2078002D207E5C2
:1003F00033B41002800DE535B41002800675331059
:10040000753510E534B41002800DE536B410028065
:1004100006753410753610753F007405F540780385
:10042000120D2A1210F8E531030303F54178051285
:100430000D2AE532F5427807120D2A120D43753F59
:1004400001E540F47803120D2AE541F47805120D18
:100450002AE542F47807120D2A120D4330A602C293
:10046000B5753F00E563F5407808120D2AE555F5AE
:10047000417807120D2A120D43753F01E540F478CB
:1004800008120D2AE541F47807120D2A120D4330A7
:100490000F03020B84754100754200753F0074061E
:1004A0007803F540120D2AAA44BA000E300A60AB58
:1004B00035853335120D5B020597BA010E300A4FB0
:1004C000AB35853335120D5B020597BA020E300A43
:1004D0003EAB35853435120D65020597BA030E30F3
:1004E0000A2DAB35853435120D65020597BA040E19
:1004F000300A1CAB35853635120D79020597BA05E1
:1005000011300A0BAB35853635120D79020597028D
:100510000721BA060B300AF7AB35120D6F020597AB
:10052000BA070E300AE9AB35853635120D7902056A
:1005300097BA080E300AD8AB35853335120D5B02F9
:100540000597BA090E300AC7AB35853435120D65EB
:10055000020597BA0A0E300AB6AB35853635120D4C
:1005600079020597BA0B0E300AA5AB3585343512E2
:100570000D65020597BA0C0B300A94AB35120D6F5E
:10058000020597BA0D0E300A86AB35853335120D4C
:100590005B0205970201FBE535900E8F93F54178DC
:1005A00004120D2A8B35AA44BA000E300A5AAC3315
:1005B000853533120D6F020690BA010E300A49AC30
:1005C00033853533120D6F020690BA020B300A38AC
:1005D000AC33120D5B020690BA030E300A2AAC331C
:1005E000853533120D6F020690BA040B300A19AC30
:1005F00033120D5B020690BA0511300A0BAC33853D
:100600003533120D6F0206900207A1BA060B300AAD
:10061000F7AC33120D5B020690BA070E300AE9AC54
:1006200033853433120D65020690BA080E300AD8AD
:10063000AC33853633120D79020690BA090E300AB2
:10064000C7AC33853633120D79020690BA0A0E30E4
:100650000AB6AC33853433120D65020690BA0B0E20
:10066000300AA5AC33853633120D79020690BA0CE8
:100670000B300A94AC33120D5B020690BA0D0E30AB
:100680000A86AC33853433120D650206900201FBF5
:10069000E533900E7D93F5427804120D2A8C337564
:1006A000A0797D02120E71E580F475A07F540FFDD4
:1006B000540DF543ED540320180A200707B4020433
:1006C000D2188006B40103C21800301806E543446E
:1006D000028002E543300B0CAD3EBD0002800FD519
:1006E0003E0A800A300A028005D53C004404F543E6
:1006F0007804120D2A120D43753F01E540F478038A
:10070000120D2AE541F47804120D2AE542F478042A
:10071000120D2AE543F47804120D2A120D43020843
:1007200021BA00067547FF02079BBA01067547FF0D
:1007300002079BBA02067549FF02079BBA030675BA
:1007400049FF02079BBA0406754AFF02079BBA05D8
:1007500005754AFF8045BA06057548FF803DBA0712
:1007600005754AFF8035BA08057547FF802DBA091F
:10077000057549FF8025BA0A05754AFF801DBA0B29
:10078000057549FF8015BA0C067548FF02079BBA2C
:100790000D067547FF02079B0201FB753510020528
:1007A00097BA00067548FF02081BBA01067548FF94
:1007B00002081BBA02067547FF02081BBA0306753A
:1007C00048FF02081BBA04067547FF02081BBA055A
:1007D000057548FF8045BA06057547FF803DBA0795
:1007E000057549FF8035BA0805754AFF802DBA099D
:1007F00005754AFF8025BA0A05754AFF801DBA0BA8
:10080000057549FF8015BA0C067547FF02081BBA2B
:100810000D067549FF02081B0201FB753310020625
:1008200090754100754200753F0074037803F540F0
:10083000120D2AAA44BA000E300A5AAB3485363457
:10084000120D79020920BA010B300A49AB34120D9E
:1008500065020920BA020E300A3BAB3485353412EA
:100860000D6F020920BA030E300A2AAB34853334E7
:10087000120D5B020920BA040B300A19AB34120DB9
:1008800065020920BA0511300A0BAB3485333412E6
:100890000D5B020920020A87BA060B300AF7AB3457
:1008A000120D65020920BA070E300AE9AB34853310
:1008B00034120D5B020920BA080E300AD8AB348519
:1008C0003534120D6F020920BA090E300AC7AB3455
:1008D000853534120D6F020920BA0A0E300AB6AB04
:1008E00034853534120D6F020920BA0B0E300AA57B
:1008F000AB34853334120D5B020920BA0C0E300A7A
:1009000094AB34853634120D79020920BA0D0E30BD
:100910000A83AB34853534120D6F0209200201FBC6
:10092000E534900EA193F5417804120D2A8B34AA78
:1009300044BA000E300A57AC36853436120D6502C3
:100940000A16BA010B300A46AC36120D79020A16A5
:10095000BA020B300A38AC36120D79020A16BA0305
:100960000B300A2AAC36120D79020A16BA040E3080
:100970000A1CAC36853536120D6F020A16BA0511FF
:10098000300A0BAC36853436120D65020A16020B9E
:1009900005BA060B300AF7AC36120D79020A16BA00
:1009A000070E300AE9AC36853536120D6F020A168D
:1009B000BA080E300AD8AC36853436120D65020AF4
:1009C00016BA090E300AC7AC36853336120D5B02F3
:1009D0000A16BA0A0E300AB6AC36853336120D5BEB
:1009E000020A16BA0B0E300AA5AC36853536120D42
:1009F0006F020A16BA0C0E300A94AC3685343612E1
:100A00000D65020A16BA0D0B300A83AC36120D7949
:100A1000020A160201FBE536900EB393F542780404
:100A2000120D2A8C367580FF75A0797D02120E7129
:100A3000E58075A07FF454F0C4F5437804120D2AC4
:100A4000120D43E54755495548554AF5807D021238
:100A50000E71D2A77DC8120E71C2A77580FF753FB7
:100A600001E540F47803120D2AE541F47804120DF3
:100A70002AE542F47804120D2AE543F47804120DB5
:100A80002A120D43020CBFBA0006754AFF020AFF84
:100A9000BA01067549FF020AFFBA02067548FF024D
:100AA0000AFFBA03067547FF020AFFBA0405754933
:100AB000FF804CBA05057547FF8044BA06057549A5
:100AC000FF803CBA07057547FF8034BA08057548B2
:100AD000FF802CBA09057548FF8024BA0A057548BD
:100AE000FF801CBA0B057547FF8014BA0C06754AC7
:100AF000FF020AFFBA0D057548FF80030201FB756E
:100B00003410020920BA00067549FF020B7EBA01B3
:100B100006754AFF020B7EBA0206754AFF020B7E7B
:100B2000BA0306754AFF020B7EBA04057548FF80BA
:100B30004DBA05057549FF8045BA06057549FF8020
:100B40003DBA07057548FF8035BA08057549FF802D
:100B50002DBA09057547FF8025BA0A057547FF803C
:100B60001DBA0B057548FF8015BA0C067549FF02C2
:100B70000B7EBA0D06754AFF020B7E0201FB75362D
:100B800010020A16753F0074067803F540120D2A0C
:100B90007400F5417804120D2A7400F542780412AD
:100BA0000D2A75A0797D02120E71E580F475A07F83
:100BB000540F300B0CAD3EBD0002800ED53E0980B7
:100BC000098007D53C02D20A440454FCF54378045A
:100BD000120D2A120D43753F01E540F47803120D02
:100BE0002AE541F47804120D2AE542F47804120D46
:100BF0002AE543F47804120D2A120D43200F030254
:100C000001FB753F007404F5407803120D2A75A0AE
:100C1000737D02120E71E580F4F54175A07F7808AE
:100C2000120D2A75A0747D02120E71E58075A07FE9
:100C3000540FF4F5427804120D2A120D43753F014A
:100C4000E540F47803120D2AE541F47808120D2AE4
:100C5000E542F47804120D2A120D43D203D204D2D5
:100C600005D205753F007401F5407803120D2A7511
:100C7000A0757D02120E71E580F4F54175A07F78B4
:100C800008120D2A75A0747D02120E71E58075A000
:100C90007F54F0C4F44408F5427804120D2A120D72
:100CA00043753F01E540F47803120D2AE541F478DD
:100CB00008120D2AE542F47804120D2A120D43E5BC
:100CC0003CB40002D20A30A558200355200452201B
:100CD000054F20064C0546E546B4FF4B754600051A
:100CE0003DE53DB42441D2B5754600753D0075A083
:100CF00079D294C29375A0797D02120E71E5807548
:100D0000A07FF4540270EE7D05120E6675A0797D09
:100D100002120E71E58075A07FF4540260EE0200AD
:100D200055754600753D000201FB30B4FD20B4FD51
:100D30007D20120E71135006D2B1053F8002C2B160
:100D4000D8E82230B4FD20B4FD7D20120E71E53FBD
:100D500054016004D2B18002C2B122E53304900E86
:100D60007D93F54722E53404900EA193F54922E5E1
:100D70003504900E8F93F54822E53604900EB39318
:100D8000F54A22E9540FB400137910E4B54B04B5C9
:100D90004C0722154BB54C0122154C22B40212E42B
:100DA000B54B067908754C0322154B7910754C0329
:100DB00022B40612E4B54B06790A754C0322154B92
:100DC0007910754C0322B40E12E4B54B06790C75FC
:100DD0004C0422154B7910754C0422B40A12E4B568
:100DE0004B06790E754C0522154B7910754C052272
:100DF000B40112E4B54C067906754B0322154C7903
:100E000010754B0322B40512E4B54C067904754BFA
:100E10000322154C7910754B0322B40D12E4B54C26
:100E2000067902754B0422154C7910754B0422B4D7
:100E30000912E4B54C067900754B0522154C791062
:100E4000754B05227910227D04120E71335004D2A5
:100E5000928002C2927D02120E71C2917D02120E28
:100E600071D291D8E2227E287FF9DFFEDEFADDF62C
:100E700022DDFE22FFFFFF00FF00FF00FFFDF7F96C
:100E8000F7F5F7F1F7F2FBF6FBFAFBFEFB00FFFDCF
:100E9000FEF9FEF5FEF1FEF2FDF6FDFAFDFEFD00A7
:100EA000FFFDDFF9DFF5DFF1DFF2EFF6EFFAEFFE3E
:100EB000EF00FFFDBFF9BFF5BFF1BFF27FF67FFA8C
:100EC0007FFE7F00FF755900755A00755B00752421
:100ED00000756500D288D2A8D2AFE565B4C00720FE
:100EE0000D4ED208804AE55BB40505755B00804075
:100EF000E559B405028039E524B407DE7524007590
:100F00005900C2AFD2B57D28120E66C2B57D01125E
:100F10000E66D2B57D03120E66C2B57D01120E6655
:100F2000D2B57D03120E66C2B57D01120E6680D465
:100F3000C2AF200D43E56454406033E5645430B4DF
:100F40000008E555940CF5558029B41008E5559432
:100F500018F555801EB42008E5559424F5558013E6
:100F6000B43008E5559430F5558008020028C29445
:100F700002014ED20D0200D830080A856255D2B562
:100F8000D20E0200D8D2B57D03120E66020147C010
:100F9000E02096020565A2B09201E524B400051296
:100FA0000FB7800EB401051210018006B4030312BE
:100FB0001063D2AFD0E032A201E55F13F55FE55ECA
:100FC00013F55EE55D13F55DE55C13F55CE55CB47A
:100FD000011FE55DB4001AE55EB40015E55FB4C01D
:100FE00010D220755A00755B007565001210F880EC
:100FF0000C055AE55AB48005755A00055B7560000A
:10100000220560A201E55F13F55FE55E13F55EE57D
:101010005D13F55DE55C13F55CE560B420441210EA
:10102000B4200233AF5CE55EF4B5072BE55D547F79
:10103000FFE55FF4547FB5071EE55CB53119E55D4A
:10104000541FB53212E55EF4B5310CE55FF4541F60
:10105000B53204D221800875240005591210F875A4
:101060006000220560A201E55F13F55FE55E13F500
:101070005EE55D13F55DE55C13F55CE560B420337A
:101080001210B4200225AF5CE55EF4B5071DE55DE6
:10109000547FFFE55FF4547FB50710E55CB5630B43
:1010A000E55D543FB55504D22280050559752400ED
:1010B00075600022756100E55C1210EDE55D1210AF
:1010C000ED75F002E56184E5F06002801D75610157
:1010D000E55E1210EDE55F1210ED75F002E561843A
:1010E000E5F060028004C2028002D20222C37F08BF
:1010F0001350020561DFF92275A0717D02120E7195
:10110000E580F4FC23232354F84405F53175A07FD2
:10111000ECC4035407FC75A0727D02120E71E580C9
:10112000F4C403FD54184CF53275A07FED5460B43F
:101130006003D20F22C20F2275630075A0707D027A
:10114000120E71E580F4547FF564543FF555E56463
:101150005440700775A07F7563622275A07FE564B7
:101160005430B400067563E2021183B4100675634F
:10117000EA021183B420067563F2021183B43003CE
:101180007563FAE564540FB4000475553022B40158
:101190000475553122B4020475553222B403047526
:1011A000553322B4040475553422B40504755535FD
:1011B00022B4060475553622B4070475553722B497
:1011C000080475553822B4090475553922B40A0447
:1011D00075553A227555C0221D0C1D141D1C1D2469
:1011E0001D2C1D341D3C1D441D4C1D541D5C1D64D7
:1011F0001D6C1D741D7C1D841D8C1D941D9C1DA4C7
:101200001DAC1DB41DBC1DC41DCC1DD41DDC1DE4B6
:101210001DEC1DF41DFC1E041E0C1E141E1C1E24A1
:101220001E2C1E341E3C1E441E4C1E541E5C1E648E
:101230001E6C1E741E7C1E841E8C1E941E9C1EA47E
:0E1240001EAC1EB41EBC1EC41ECC1ED41EDC72
