:02000000802658
:02000300802358
:02000B00801B58
:02001300801358
:02001B00800B58
:02002300800358
:0A002600800075817075D0007587A9
:100030000075A0797D02120DF5E580F475A07F545E
:1000400002B402117D02120DEAC2B57D02120DEA60
:10005000D2B5020031C2A7C20DC20AC20ED210D25E
:1000600011754AFF754CFF754BFF754DFF754804C0
:100070007D05120DF520B308C20F0030B30801282A
:100080000030B3A4D20F75A0727D02120DF5E58089
:10009000F454F0C4F54775A07FD290D2CCD291D25F
:1000A00094D293D2B1D20B754900753D00753310CF
:1000B000753410753510753610753800753A007541
:1000C0003900753B00755200755300755400755525
:1000D00000755600755700755800755900C2B57502
:1000E000A0707D03120DF5E580208707D20EC20BAC
:1000F000753C19F4547FF54E23F530900DF893F5C7
:1001000041E5300493F54275A07FE54EB47F0221AE
:10011000ACC2937D01120DEA12013A7D02120DEA82
:100120002095FD7D02120DF5C2947D08120DEAD2D4
:10013000B57D05120DEAC2B521ACD291C2907D0207
:10014000120DF574F0780812018D7403780812010D
:100150008D7454780612018D7D04120DF5D2907DB8
:1001600064120DF5C2907D02120DF57452780812DA
:10017000018DE541780812018DE542780612018D66
:100180007D04120DF5D2907D64120DF5227D0812CA
:100190000DF5335004D292219BC2927D08120DF5C9
:1001A000C2917D02120DF5D291D8E22275A0777D21
:1001B00002120DF5E580540FF533E58054F0C47557
:1001C000A07FF53575A0787D02120DF5E580540FFE
:1001D000F534E58054F0C475A07FF536752FFFE542
:1001E00033B40F11E535B40F10E534B40F0FE53615
:1001F000B40F0E4103C27821E4C27821E9C27C2108
:10020000EEC27CE52FF46027F4F5807D02120DF537
:10021000C2B5D2A77D01120DEAC2A700007580FF0A
:100220000000D2B5D2A77D02120DEAC2A721ACC24E
:10023000B57C09E4F530C2A7900EAA93F5807D0441
:10024000120DF5D2A77D07120DEAE53004DCE57545
:1002500080FF200E1575A0707D01120DF520070A94
:10026000208707C20BD20E753C1975A07F75200040
:1002700030A604C2B5418E20A614200D05D20D75FE
:100280003E32D54807C2B5754804418ED2B575A037
:10029000777D01120DF5E580F4B41004740280330B
:1002A000B412047406802CB41604740E8025B4179E
:1002B00004740A801EB4080474018017B40A04741C
:1002C000058010B40E04740D8009B40F0474098005
:1002D000027400F975A07F855250855351120D08A4
:1002E0008933855052855153B91004C20041F1D26F
:1002F0000074017804120CB1E55C600F30100585C4
:100300005C5AC210D55A04C2B6D2107400780412D6
:100310000CB175A0777D01120DF5E580F4B42004D1
:1003200074108033B422047450802CB4260474D624
:100330008025B427047490801EB440047420801774
:10034000B4420474608010B4460474E08009B44779
:100350000474A080027400C4F975A07F8554508590
:100360005551120D088935855054855155B91004E1
:10037000C2016176D20174007804120CB1E55C60B0
:100380000F301005855C5AC210D55A04C2B6D2107F
:1003900074007804120CB175A0787D01120DF5E59A
:1003A00080F4B4080474018033B418047405802CFC
:1003B000B43804740D8025B478047409801EB40424
:1003C0000474028017B4140474068010B4340474E6
:1003D0000E8009B47404740A80027400F975A07F59
:1003E000855650855751120D0889348550568551D0
:1003F00057B91004C20261FAD20274007804120CD8
:10040000B1E55C600F301105855C5BC211D55B0402
:10041000C2B7D21174007804120CB175A0787D02B5
:10042000120DF5E580F4B4010474208033B4110496
:100430007460802CB4310474E08025B4710474A01D
:10044000801EB4020474108017B41204745080101B
:10045000B4320474D08009B47204749080027400C1
:10046000C4F975A07F855850855951120D088936F9
:10047000855058855159B91004C203817FD2037445
:10048000007804120CB1E55C600F301105855C5BEF
:10049000C211D55B04C2B7D211740C7804120CB12E
:1004A000E5207004C20781AAD207E533B4100281A7
:1004B000BEE535B4100281BE753310753510E534D4
:1004C000B4100281D2E536B4100281D275341075B1
:1004D00036107540007405F5437803120CB175A011
:1004E000717D01120DF5E580F4F54475A07F780863
:1004F000120CB175A0727D02120DF5E580F475A0A5
:100500007F540FF5457804120CB1120CC9754001E7
:10051000E543F47803120CB1E544F47808120CB109
:10052000E545F47804120CB1120CC9D2B67544003A
:1005300075450075400074067803F543120CB1AAA6
:1005400047BA000D300B4AAB35853335120CE0C18C
:1005500012BA010D300B3AAB35853335120CE0C1C0
:1005600012BA020D300B2AAB35853435120CEAC1B4
:1005700012BA030D300B1AAB35853435120CEAC1B3
:1005800012BA0410300B0AAB35853635120CFEC199
:1005900012020779BA050D300BF7AB3585363512E7
:1005A0000CFEC112BA060A300BE7AB35120CF4C1CF
:1005B00012BA070D300BDAAB35853635120CFEC199
:1005C00012BA080D300BCAAB35853335120CE0C1B9
:1005D00012BA090D300BBAAB35853435120CEAC1AD
:1005E00012BA0A0D300BAAAB35853635120CFEC196
:1005F00012BA0B0D300B9AAB35853435120CEAC1AB
:1006000012AA47BA0C0A300B88AB35120CF4C1128F
:100610004152200F08E535900ED793C123E5359060
:100620000EB393F5447804120CB18B35AA47BA0087
:100630000D300B44AC33853533120CF4C1FABA01DA
:100640000D300B34AC33853533120CF4C1FABA02D9
:100650000A300B24AC33120CE0C1FABA030D300B94
:1006600017AC33853533120CF4C1FABA040D300BD4
:1006700007AC33120CE0C1FA0207F0BA050D300BDB
:10068000F7AC33853533120CF4C1FABA060A300BD5
:10069000E7AC33120CE0C1FABA070D300BDAAC3319
:1006A000853433120CEAC1FABA080D300BCAAC33E8
:1006B000853633120CFEC1FABA090D300BBAAC33D1
:1006C000853633120CFEC1FABA0A0D300BAAAC33D0
:1006D000853433120CEAC1FABA0B0D300B9AAC33E5
:1006E000853633120CFEC1FAAA47BA0C0A300B88C1
:1006F000AC33120CE0C1FA020252200F08E533902D
:100700000ED793E10BE533900EB393F545780412C1
:100710000CB18C3375A0797D02120DF5E580F4756E
:10072000A07F540F300D0CAD3EBD00028011D53EB0
:100730000C800C300B028007D53C02D20B440430F5
:10074000070254FDF5467804120CB1120CC9D2B759
:10075000754001E543F47803120CB1E544F47804E4
:10076000120CB1E545F47804120CB1E546F47804B6
:10077000120CB1120CC9020867BA0006754AFF02D2
:1007800007EABA0106754AFF0207EABA0206754C83
:10079000FF0207EABA0306754CFF0207EABA04062D
:1007A000754DFF0207EABA0505754DFFE1EABA0685
:1007B00005754BFFE1EABA0705754DFFE1EABA0896
:1007C00005754AFFE1EABA0905754CFFE1EABA0A84
:1007D00005754DFFE1EABA0B05754CFFE1EABA0C6D
:1007E00006754BFF0207EA02025275351002061227
:1007F000BA0006754BFF020861BA0106754BFF028D
:100800000861BA0206754AFF020861BA0306754B11
:10081000FF020861BA0406754AFF020861BA0505BD
:10082000754BFF0161BA0605754AFF0161BA0705FC
:10083000754CFF0161BA0805754DFF0161BA0905E4
:10084000754DFF0161BA0A05754DFF0161BA0B05CF
:10085000754CFF0161BA0C06754AFF02086102027D
:10086000527533100206FA75440075450075400054
:1008700074037803F543120CB1AA47BA000E300B8B
:1008800049AB34853634120CFE020955BA010B30DF
:100890000B38AB34120CEA020955BA020E300B2A9F
:1008A000AB34853534120CF4020955BA030E300B03
:1008B00019AB34853334120CE0020955BA040E30FA
:1008C0000B08AB34120CEA020955020AC6BA050E2F
:1008D000300BF7AB34853334120CE0020955BA06FD
:1008E0000B300BE6AB34120CEA020955BA070E3096
:1008F0000BD8AB34853334120CE0020955BA080E1C
:10090000300BC7AB34853534120CF4020955BA09E3
:100910000E300BB6AB34853534120CF4020955BADF
:100920000A0E300BA5AB34853534120CF402095590
:10093000BA0B0E300B94AB34853334120CE0020941
:1009400055BA0C0E300B83AB34853634120CFE02D4
:100950000955020252200F09E534900EE99302096D
:1009600067E534900EC593F5447804120CB18B34CE
:10097000AA47BA000E300B46AC36853436120CEA64
:10098000020A49BA010B300B35AC36120CFE020AD2
:1009900049BA020B300B27AC36120CFE020A49BAD8
:1009A000030B300B19AC36120CFE020A49BA0411C3
:1009B000300B0BAC36853536120CF4020A49020BAB
:1009C0003CBA050E300BF7AC36853436120CEA0211
:1009D0000A49BA060B300BE6AC36120CFE020A4985
:1009E000BA070E300BD8AC36853536120CF4020A35
:1009F00049BA080E300BC7AC36853436120CEA0201
:100A00000A49BA090E300BB6AC36853336120CE003
:100A1000020A49BA0A0E300BA5AC36853336120CE1
:100A2000E0020A49BA0B0E300B94AC36853536120B
:100A30000CF4020A49BA0C0E300B83AC36853436FE
:100A4000120CEA020A49020252200F09E536900E02
:100A5000E993020A5BE536900EC593F545780412DA
:100A60000CB18C367580FF75A0797D02120DF5E50D
:100A70008075A07FF454F0C4F5467804120CB112CE
:100A80000CC9E54A554C554B554DF5807D02120D6C
:100A9000F5D2A77DC8120DF5C2A77580FF7540017C
:100AA000E543F47803120CB1E544F47804120CB178
:100AB000E545F47804120CB1E546F47804120CB163
:100AC000120CC9020BB2BA0006754DFF020B36BA02
:100AD0000106754CFF020B36BA0206754BFF020B7E
:100AE00036BA0306754AFF020B36BA0405754CFF89
:100AF0006136BA0505754AFF6136BA0605754CFFC1
:100B00006136BA0705754AFF6136BA0805754BFFAD
:100B10006136BA0905754BFF6136BA0A05754BFF98
:100B20006136BA0B05754AFF6136BA0C06754DFF82
:100B3000020B36020252753410020955BA000675CE
:100B40004CFF020BACBA0106754DFF020BACBA02AA
:100B500006754DFF020BACBA0306754DFF020BACD8
:100B6000BA0405754BFF61ACBA0505754CFF61AC65
:100B7000BA0605754CFF61ACBA0705754BFF61AC51
:100B8000BA0805754CFF61ACBA0905754AFF61AC3E
:100B9000BA0A05754AFF61ACBA0B05754BFF61AC2B
:100BA000BA0C06754CFF020BAC02025275361002ED
:100BB0000A49309703020C6E7540007404F54378BF
:100BC00003120CB175A0737D02120DF5E580F4F5EA
:100BD0004475A07F7808120CB175A0747D02120DC7
:100BE000F5E58075A07F540FF4F5457804120CB13B
:100BF000120CC9754001E543F47803120CB1E544C9
:100C0000F47808120CB1E545F47804120CB1120C1A
:100C1000C9020C6E7540007401F5437803120CB1E3
:100C200075A0757D02120DF5E580F4F54475A07F81
:100C30007808120CB175A0747D02120DF5E580756F
:100C4000A07F54F0C4F4F5457804120CB1120CC91D
:100C5000754001E543F47803120CB1E544F47808DB
:100C6000120CB1E545F47804120CB1120CC930A590
:100C70003720003420013120022E20032B0549E5C6
:100C800049B4FF2A754900053DE53DB42F20D2B592
:100C9000C2A77580777D02B1F5D2A7754900753D71
:100CA00000D293D294758702754900753D00020207
:100CB0005230B4FD20B4FD7D20B1F5135006D2B101
:100CC000054081C6C2B1D8E92230B4FD20B4FD7D13
:100CD00020B1F5E54054016004D2B181DFC2B122F8
:100CE000E53304900EB393F54A22E53404900EC523
:100CF00093F54C22E53504900EB393F54B22E5367F
:100D000004900EC593F54D22E9540FB400167910E6
:100D1000755C00E4B55004B55107221550B551017A
:100D200022155122B40215E4B550097908755C0406
:100D3000755103221550791075510322B40615E43C
:100D4000B55009790A755C03755103221550791065
:100D500075510322B40E15E4B55009790C755C0287
:100D6000755104221550791075510422B40A15E406
:100D7000B55009790E755C01755105221550791031
:100D800075510522B40115E4B551097906755C0465
:100D9000755003221551791075500322B40515E4DE
:100DA000B551097904755C0375500322155179100A
:100DB00075500322B40D15E4B551097902755C0232
:100DC000755004221551791075500422B40915E4A8
:100DD000B551097900755C017550052215517910DE
:100DE000755005227910755C00227E287FF9DFFEA0
:100DF000DEFADDF622DDFE227AAC7AB47ABC7AC461
:100E00007ACC7AD47ADC7AE47AEC7AF47AFC7B04D1
:100E10007B0C7B147B1C7B247B2C7B347B3C7B44BA
:100E20007B4C7B547B5C7B647B6C7B747B7C7B84AA
:100E30007B8C7B947B9C7BA47BAC7BB47BBC7BC49A
:100E40007BCC7BD47BDC7BE47BEC7BF47BFC7C0489
:100E50007C0C7C147C1C7C247C2C7C347C3C7C4472
:100E60007C4C7C547C5C7C647C6C7C747C7C7C8462
:100E70007C8C7C947C9C7CA47CAC7CB47CBC7CC452
:100E80007CCC7CD47CDC7CE47CEC7CF47CFC7D0441
:100E90007D0C7D147D1C7D247D2C7D347D3C7D442A
:100EA0007D4C7D547D5C7D647D6CEEDDBB77FF0009
:100EB000FF00FFFBF7FAFBF9FDF8FEFCFEFDFDFE6F
:100EC000FBFFF700FFFB7FFABFF9DFF8EFFCEFFD58
:100ED000DFFEBFFF7F00FFFDF7F9FBF5FDF1FEF23E
:100EE000FEF6FDFAFBFEF700FFFD7FF9BFF5DFF12F
:0B0EF000EFF2EFF6DFFABFFE7F00FF1D
