:020000000528D1
:080008000828A020640006286E
:100010000B190D288B018B1609009E3081000B11E6
:100020005320C12000210D1C19280E191928432125
:10003000CA2164000F1C212810192128FD213B2210
:10004000D82245300E0503192E2828302002031C23
:100050002C28111591152E2811119111C53010055C
:1000600003193B2828302002031C39281117911747
:100070003B28111391130D184A280F184A282008FD
:1000800003194528111111134A282118492811155F
:100090004A28111783161F3085000030860083120E
:1000A000110886000900831688018312C130880078
:1000B0009B20081508195A280908AA00C930880089
:1000C0009B200815081962280908AB00D130880068
:1000D0009B20081508196A282C1A7428051A7928F3
:1000E000AF0B7B282C167928051E7928AF0B7B28AF
:1000F0002C120430AF000000A00A50302002031C74
:100100000800A001A80AA10A3C302102031C8B2888
:10011000A101A30AA50A1E302302031C9128A301F2
:10012000A70AA90AA20A3C302202031C0800A20165
:10013000A40AA60A080003308C008C0B9D28080036
:10014000831688011F3085000030860083128601E7
:100150000D30840023308C008001840A8C0BAC2885
:100160002D309300FA309400323095003C309600E8
:100170008316863081008312A0308B009E30810070
:1001800008000E1FC82852302B02031CC8280E136B
:100190000D18E42810302B02031CD828CE302B0277
:1001A0000318D828930BDA280D142D309300E22879
:1001B0002D3093008F18E22805302002031DE2281D
:1001C0009114080091100800911CF028CE302B02E9
:1001D000031CED28940B0800F628FA309400080060
:1001E00010302B020318FD28930B08008D018E019F
:1001F000911011119111FA3094002D3093000800E4
:10020000101F072952302A02031C072910130F1848
:10021000272910302A02031C1729CE302A0203187E
:100220001729950B19290F143230950025293230E2
:1002300095008D1825290F30200203192329373006
:100240002002031D25299116080091120800911E15
:100250003329CE302A02031C3029960B0800392995
:100260003C309600080010302A0203184029950BF4
:1002700008008F0190019112111391133C309600E8
:1002800032309500080060300E05031D08008D18FF
:1002900059298D14AE011115111391119112A0015C
:1002A00019309E00F0309A00A101A301A501A70119
:1002B00008000E1A5D2991140E168D1A6429083053
:1002C000210203188D16080050302B0203186C29E8
:1002D0009E0B6E290E17C32919309E00BE302B02CB
:1002E000031C75299A0B7729BF29F0309A00CE306C
:1002F0002B020318080010302B02031C0800983052
:100300002B02031C98292E082B02031C8E2903198B
:100310009529980B9729AE0AA50195290A309800CE
:100320001E3028020318BF2998290A309800A80116
:100330001E3025020318BF29083027020318BF29E1
:10034000033027020318AD29023027020318B2290F
:10035000013027020318B72908009C302B0203182C
:10036000C729BB2990302B020318C729BB29843029
:100370002B020318C7299C0B08000E15C329F03067
:100380009A008E1691158D1091100E1211111430C5
:100390009C00080063300E05031908000E1AD229CC
:1003A0000E16502903300E05031DDE298E1EDA2994
:1003B0008E14DB290E1491100E1208008F18E429F8
:1003C0000E1AE6290E16F5299110FA290430270293
:1003D0000318EB29080096302B020318FA299A0B10
:1003E00008008E100E100E128E12A101A301A7019B
:1003F0008E11911019309A000800111A192A2C1B1D
:10040000042A2C1A092A08002C1A0800AC122C13F2
:100410000800A00111169112111791178F10901258
:1004200010131011A201A40171302A020318080050
:10043000382A0430200203181F2A91171F2AAC1AE9
:10044000252A2C1A282AAC16282A2C1E282A2F2ABC
:1004500071302A020318312A9B0B0800382A2C1706
:10046000382A19309B001E302202031C0800AC0100
:10047000111291130800E0301005031D08008D18BB
:10048000512A8F18562A8F14111711119113AD018B
:10049000A00119309F002D309B00A201A401A601EC
:1004A00008008F101113911391120800101A652A79
:1004B0002208031D652AB6302A02031C622A9F0BFC
:1004C0000800D02A19309F000800911610165030ED
:1004D0002A0203186F2A9F0B712A1017D32A19308A
:1004E0009F002408031D7F2A0A30220203187F2A56
:1004F000BC302A02031CD52A9D0B0800D02ABE302E
:100500002A02031C862A9B0B882AD02A2D309B00A6
:10051000CE302A020318080010302A02031C0800FB
:1005200098302A02031CA92A2D082A02031C9F2A9C
:100530000319A62A990BA82AAD0AA601A62A0A30F1
:1005400099001E3029020318D02AA92A0A309900DE
:10055000A9011E3026020318D02AF0302402031805
:10056000CE2A5A3024020318BE2A3C302402031833
:10057000C32A1E3024020318C82A08009C302A020D
:100580000318D52ACC2A90302A020318D52ACC2A5F
:1005900084302A020318D52A9D0B08001015D32A8F
:1005A00090162D309B001012911214309D000800FF
:1005B000E330100503190800101AE12A1016A401EF
:1005C000E42A8D1CE82A9112A20119309B00080030
:1005D0009019EF2A0A302202031C2D2B90150330AC
:1005E0001005031D362B8D302A020318FB2A9B0BA6
:1005F000FD2A9001322B19309B0002302402031C8B
:100600001B2B8F1091171113B1302A0203182F2BB7
:10061000F0302402031C1B2B901A2F2B312B4C3053
:10062000200203182B2B23302002031C1B2B273006
:10063000200203182B2B0F302002031C2D2B13300C
:10064000200203182B2B37302002031C2D2B3B30AC
:10065000200203182D2B9116080091120800901407
:10066000322B101491121012901108001018422B06
:1006700096302A020318422B9B0B08009010101092
:100680001012522B19309B0003302202031C532BF3
:100690000F302002031C532B911615302002031833
:0A06A000A201080090119112080059
:00000001FF
