:02000000802658
:03000300020F8861
:02000B00801B58
:02001300801358
:02001B00800B58
:02002300800358
:0A002600800075817075D0007587A9
:1000300000C2A775A0797D02120E6AE580F475A052
:100040007F5402B4021B7D02120E5FC2B57D021204
:100050000E5FD2B57580FF7D05120E5FD2A702003C
:1000600031C2A7C20BC209C20CC20FC20DC20EC25E
:1000700008C212D210D211D2B6D2B77547FF754955
:10008000FF7548FF754AFF75450475A0727D04121F
:100090000E6AE580F454F0C4F54475A07FD20A7569
:1000A0004600753D00753310753410753510753682
:1000B00010754D00754E00754F007550007551005C
:1000C000755200755300755400C2B575A0707D025D
:1000D000120E6AE58020870DD20CC20A753C1420EE
:1000E0009703753C0C75A07F12113D855562E5554F
:1000F00023F5569011DA93F557E5560493F558D247
:1001000096D291C2907D02120E6A74FF7808120E88
:100110004074107808120E4074047806120E407D68
:1001200002120E6AD2907D02120E6AC2907D0212F5
:100130000E6A74A47808120E40E5577808120E4033
:10014000E5587806120E407D02120E6AD2907D02AA
:10015000120E5F200E0ED294C293020EBEC2B57D67
:1001600002120E5FC294D2B5D29375A0777D0212AF
:100170000E6AE580540FF533E58054F0C475A07F16
:10018000F53575A0787D02120E6AE580540FF534BE
:10019000E58054F0C475A07FF536752FFFE533B4C4
:1001A0000F11E535B40F10E534B40F0FE536B40F79
:1001B0000E21C1C27821A2C27821A7C27F21ACC280
:1001C0007FE52FF46027F4F5807D02120E6AC2B538
:1001D000D2A77D01120E5FC2A700007580FF00004C
:1001E000D2B5D2A77D02120E5FC2A7216AC2B57C2A
:1001F00007E4F530C2A7900E6D93F5807D04120ED2
:100200006AD2A77D0C120E5FE53004DCE57580FF35
:10021000200C1B75A0707D01120E6A20071020872C
:100220000DC20AD20C753C14209703753C0C75A0C6
:100230007F75200030A602415020A614200B05D265
:100240000B753E32D54507C2B57545044150D2B550
:1002500075A0777D01120E6AE580F4B41004740273
:100260008033B412047406802CB41604740E8025F6
:10027000B41704740A801EB4080474018017B40A09
:100280000474058010B40E04740D8009B40F047456
:100290000980027400F975A07F854D4B854E4C1284
:1002A0000D5E8933854B4D854C4EB91004C2034118
:1002B000B3D20374017808120D07E568600F30109F
:1002C00005856866C210D56604C2B6D21075A077DF
:1002D0007D01120E6AE580F4B4200474108033B4FA
:1002E00022047450802CB4260474D68025B42704CC
:1002F0007490801EB4400474208017B4420474606B
:100300008010B4460474E08009B4470474A08002ED
:100310007400F9C4F975A07F854F4B85504C120DC0
:100320005E8935854B4F854C50B91004C20461324B
:10033000D20474007808120D07E568600F301005CC
:10034000856866C210D56604C2B6D21075A0787DE5
:1003500001120E6AE580F4B4080474018033B41805
:10036000047405802CB43804740D8025B4780474AA
:1003700009801EB4040474028017B4140474068047
:1003800010B43404740E8009B47404740A800274C6
:1003900000F975A07F85514B85524C120D5E893452
:1003A000854B51854C52B91004C20561AFD205741A
:1003B000007808120D07E568600F30110585686741
:1003C000C211D56704C2B7D21175A0787D02120E92
:1003D0006AE580F4B4010474208033B411047460BD
:1003E000802CB4310474E08025B4710474A0801EA4
:1003F000B4020474108017B4120474508010B43224
:100400000474D08009B47204749080027400F9C43A
:10041000F975A07F85534B85544C120D5E89368546
:100420004B53854C54B91004C206812ED20674C0B9
:100430007808120D07E568600F301105856867C2FE
:1004400011D56704C2B7D211E5207004C2078152EA
:10045000D207E533B410028166E535B41002816637
:10046000753310753510E534B41002817AE536B471
:100470001002817A753410753610753F007405F5D9
:10048000407803120D071210F0E531030303F54124
:100490007805120D07E532F5427807120D07120DA7
:1004A0001F753F01E540F47803120D07E541F4782C
:1004B00005120D07E542F47807120D07120D1F30E3
:1004C000A602C2B5753F00E563F5407808120D0736
:1004D000E555F5417807120D07120D1FD2B6753F8D
:1004E00001E540F47808120D07E541F47807120D94
:1004F00007120D1FD2B7754100754200753F007499
:10050000067803F540120D07AA44BA000D300A5AC6
:10051000AB35853335120D36A1E9BA010D300A4AE3
:10052000AB35853335120D36A1E9BA020D300A3AE2
:10053000AB35853435120D40A1E9BA030D300A2AD6
:10054000AB35853435120D40A1E9BA040D300A1AD5
:10055000AB35853635120D54A1E9BA0510300A0ABB
:10056000AB35853635120D54A1E9020780BA060A6B
:10057000300AF7AB35120D4AA1E9BA070D300AEA85
:10058000AB35853635120D54A1E9BA080D300ADABB
:10059000AB35853335120D36A1E9BA090D300ACADB
:1005A000AB35853435120D40A1E9BA0A0D300ABACF
:1005B000AB35853635120D54A1E9BA0B0D300AAAB8
:1005C000AB35853435120D40A1E9BA0C0A300A9AD0
:1005D000AB35120D4AA1E9BA0D0D300A8DAB358548
:1005E0003335120D36A1E94110E535900E8893F5AB
:1005F000417804120D078B35AA44BA000D300A5415
:10060000AC33853533120D4AC1D4BA010D300A44DA
:10061000AC33853533120D4AC1D4BA020A300A34DC
:10062000AC33120D36C1D4BA030D300A27AC338572
:100630003533120D4AC1D4BA040A300A17AC33124A
:100640000D36C1D4BA0510300A0AAC3385353312E1
:100650000D4AC1D4020800BA060A300AF7AC3312B8
:100660000D36C1D4BA070D300AEAAC3385343312E3
:100670000D40C1D4BA080D300ADAAC3385363312D6
:100680000D54C1D4BA090D300ACAAC3385363312C1
:100690000D54C1D4BA0A0D300ABAAC3385343312C2
:1006A0000D40C1D4BA0B0D300AAAAC3385363312D3
:1006B0000D54C1D4BA0C0A300A9AAC33120D36C1AB
:1006C000D4BA0D0D300A8DAC33853433120D40C1D0
:1006D000D4020210E533900E7693F5427804120DA1
:1006E000078C3375A0797D02120E6AE580F475A03F
:1006F0007F540FFD5403B40308ED540DFDD212E1F5
:100700000EB40104C212E10E301203020028ED54AF
:100710000DF543ED5403200F0A200707B40204D25D
:100720000FE129B40103C20F00300F06E543440274
:10073000E134E543300B0CAD3EBD0002800FD53EE9
:100740000A800A300A028005D53C004404F543784B
:1007500004120D07120D1F753F01E540F4780312D6
:100760000D07E541F47804120D07E542F478041210
:100770000D07E543F47804120D07120D1F020880DF
:10078000BA00067547FF0207FABA01067547FF026D
:1007900007FABA02067549FF0207FABA0306754955
:1007A000FF0207FABA0406754AFF0207FABA0505FE
:1007B000754AFFE1FABA06057548FFE1FABA07057E
:1007C000754AFFE1FABA08057547FFE1FABA09056B
:1007D0007549FFE1FABA0A05754AFFE1FABA0B0555
:1007E0007549FFE1FABA0C067548FF0207FABA0D1F
:1007F000067547FF0207FA0202107535100205E977
:10080000BA00067548FF02087ABA01067548FF0269
:10081000087ABA02067547FF02087ABA03067548D5
:10082000FF02087ABA04067547FF02087ABA05057E
:100830007548FF017ABA06057547FF017ABA0705C0
:100840007549FF017ABA0805754AFF017ABA0905A8
:10085000754AFF017ABA0A05754AFF017ABA0B0593
:100860007549FF017ABA0C067547FF02087ABA0D7E
:10087000067549FF02087A0202107533100206D489
:10088000754100754200753F0074037803F540120E
:100890000D07AA44BA000E300A5AAB34853634121A
:1008A0000D5402097FBA010B300A49AB34120D40D6
:1008B00002097FBA020E300A3BAB34853534120D83
:1008C0004A02097FBA030E300A2AAB348533341248
:1008D0000D3602097FBA040B300A19AB34120D40F1
:1008E00002097FBA0511300A0BAB34853334120D7F
:1008F0003602097F020AE6BA060B300AF7AB341259
:100900000D4002097FBA070E300AE9AB3485333453
:10091000120D3602097FBA080E300AD8AB3485357D
:1009200034120D4A02097FBA090E300AC7AB34856A
:100930003534120D4A02097FBA0A0E300AB6AB34BA
:10094000853534120D4A02097FBA0B0E300AA5AB69
:1009500034853334120D3602097FBA0C0E300A94F6
:10096000AB34853634120D5402097FBA0D0E300AAD
:1009700083AB34853534120D4A02097F020210E53B
:1009800034900E9A93F5417804120D078B34AA44E3
:10099000BA000E300A57AC36853436120D40020AC2
:1009A00075BA010B300A46AC36120D54020A75BAFC
:1009B000020B300A38AC36120D54020A75BA030B1A
:1009C000300A2AAC36120D54020A75BA040E300AE7
:1009D0001CAC36853536120D4A020A75BA0511303F
:1009E0000A0BAC36853436120D40020A75020B64D0
:1009F000BA060B300AF7AC36120D54020A75BA0764
:100A00000E300AE9AC36853536120D4A020A75BA3F
:100A1000080E300AD8AC36853436120D40020A75FD
:100A2000BA090E300AC7AC36853336120D36020AC3
:100A300075BA0A0E300AB6AC36853336120D360258
:100A40000A75BA0B0E300AA5AC36853536120D4A3A
:100A5000020A75BA0C0E300A94AC36853436120D83
:100A600040020A75BA0D0B300A83AC36120D5402DF
:100A70000A75020210E536900EAC93F54278041226
:100A80000D078C367580FF75A0797D02120E6AE520
:100A90008075A07FF454F0C4F5437804120D07125A
:100AA0000D1FE54755495548554AF5807D02120E00
:100AB0006AD2A77DC8120E6AC2A77580FF753F0172
:100AC000E540F47803120D07E541F47804120D07B0
:100AD000E542F47804120D07E543F47804120D079B
:100AE000120D1F020BE3BA0006754AFF020B5EBA35
:100AF00001067549FF020B5EBA02067548FF020B3C
:100B00005EBA03067547FF020B5EBA04057549FF1E
:100B1000615EBA05057547FF615EBA06057549FF56
:100B2000615EBA07057547FF615EBA08057548FF43
:100B3000615EBA09057548FF615EBA0A057548FF2E
:100B4000615EBA0B057547FF615EBA0C06754AFF18
:100B5000020B5EBA0D057548FF615E020210753426
:100B60001002097FBA00067549FF020BDDBA0106C3
:100B7000754AFF020BDDBA0206754AFF020BDDBAA9
:100B80000306754AFF020BDDBA04057548FF61DDF7
:100B9000BA05057549FF61DDBA06057549FF61DDD6
:100BA000BA07057548FF61DDBA08057549FF61DDC3
:100BB000BA09057547FF61DDBA0A057547FF61DDB2
:100BC000BA0B057548FF61DDBA0C067549FF020BCB
:100BD000DDBA0D06754AFF020BDD020210753610F4
:100BE000020A75309703020C9C753F007404F540AF
:100BF0007803120D0775A0737D02120E6AE580F46A
:100C0000F54175A07F7808120D0775A0747D02125A
:100C10000E6AE58075A07F540FF4F5427804120D3A
:100C200007120D1F753F01E540F47803120D07E52B
:100C300041F47808120D07E542F47804120D07120A
:100C40000D1F753F007401F5407803120D0775A064
:100C5000757D02120E6AE580F4F54175A07F780873
:100C6000120D0775A0747D02120E6AE58075A07FD3
:100C700054F0C4F4F5427804120D07120D1F753FAD
:100C800001E540F47803120D07E541F47808120DF0
:100C900007E542F47804120D07120D1FE53CB4007D
:100CA00002D20A20035820045520055220064F0581
:100CB00046E546B4804E75460030A542053DE53D0B
:100CC000B44841D2B5754600753D0075A079D294FF
:100CD000C29375A0797D02120E6AE58075A07FF43B
:100CE000540270EE7D05120E5F75A0797D02120E22
:100CF0006AE58075A07FF4540260EE0200617546DB
:100D000000753D0002021030B4FD20B4FD7D20D1FD
:100D10006A135006D2B1053FA11CC2B1D8E92230F6
:100D2000B4FD20B4FD7D20D16AE53F54016004D2BA
:100D3000B1A135C2B122E53304900E7693F5472276
:100D4000E53404900E9A93F54922E53504900E8817
:100D500093F54822E53604900EAC93F54A22E95407
:100D60000FB400167910756800E4B54B04B54C0754
:100D700022154BB54C0122154C22B40215E4B54B9B
:100D8000097908756804754C0322154B7910754C68
:100D90000322B40615E4B54B09790A756803754C4E
:100DA0000322154B7910754C0322B40E15E4B54B94
:100DB00009790C756802754C0422154B7910754C35
:100DC0000422B40A15E4B54B09790E756801754C17
:100DD0000522154B7910754C0522B40115E4B54C6C
:100DE000097906756804754B0322154C7910754B0B
:100DF0000322B40515E4B54C097904756803754BF5
:100E00000322154C7910754B0322B40D15E4B54C33
:100E1000097902756802754B0422154C7910754BDF
:100E20000422B40915E4B54C097900756801754BC5
:100E30000522154C7910754B052279107568002232
:100E40007D04120E6A335004D292C14EC2927D02CA
:100E5000120E6AC2917D02120E6AD291D8E2227EEF
:100E6000287FF9DFFEDEFADDF622DDFE22FFFFFF3E
:100E700000FF00FF00FFFDF7F9F7F5F7F1F7F2FBD0
:100E8000F6FBFAFBFEFB00FFFDFEF9FEF5FEF1FEB0
:100E9000F2FDF6FDFAFDFEFD00FFFDDFF9DFF5DFF7
:100EA000F1DFF2EFF6EFFAEFFEEF00FFFDBFF9BF63
:100EB000F5BFF1BFF27FF67FFA7FFE7F00FF755925
:100EC00000755A00755B00752400756500D288D2E4
:100ED000A8D2AFE565B4DC07200D4ED208E129E5C4
:100EE0005BB40F05755B00E129E559B40802E129FF
:100EF000E524B407DE752400755900C2AFD2B57D74
:100F000028120E5FC2B57D01120E5FD2B57D0312AD
:100F10000E5FC2B57D01120E5FD2B57D03120E5F6A
:100F2000C2B57D01120E5F80D4C2AF200D43E564CF
:100F300054406033E5645430B40008E555940CF532
:100F400055E16CB41008E5559418F555E16CB420E2
:100F500008E5559424F555E16CB43008E555943016
:100F6000F555E16C020028C294020164D20D020022
:100F7000EE30080A856255D2B5D20E0200EED2B527
:100F80007D03120E5F02015DC0E02096020565A29E
:100F9000B09201E524B40004F1AFE1AAB401051256
:100FA0000FF9E1AAB4030312105BD2AFD0E032A272
:100FB00001E55F13F55FE55E13F55EE55D13F55D35
:100FC000E55C13F55CE55CB4011FE55DB4001AE572
:100FD0005EB40015E55FB4C010D220755A00755B91
:100FE000007565001210F0E1F5055AE55AB4800568
:100FF000755A00055B756000220560A201E55F136C
:10100000F55FE55E13F55EE55D13F55DE55C13F5F3
:101010005CE560B420441210AC200233AF5CE55EA6
:10102000F4B5072BE55D547FFFE55FF4547FB5070A
:101030001EE55CB53119E55D541FB53212E55EF46D
:10104000B5310CE55FF4541FB53204D22101577558
:10105000240005591210F0756000220560A201E518
:101060005F13F55FE55E13F55EE55D13F55DE55C29
:1010700013F55CE560B420331210AC200225AF5CA0
:10108000E55EF4B5071DE55D547FFFE55FF4547F31
:10109000B50710E55CB5630BE55D543FB55504D26B
:1010A0002201A8055975240075600022756100E5CC
:1010B0005C1210E5E55D1210E575F002E56184E56E
:1010C000F06002801D756101E55E1210E5E55F12BA
:1010D00010E575F002E56184E5F060028004C2026B
:1010E0008002D20222C37F081350020561DFF92279
:1010F00075A0717D02120E6AE580F4FC232323544F
:10110000F84405F53175A07FECC4035407FC75A0C5
:10111000727D02120E6AE580F4C403F875A0707D3A
:1011200002120E6AE580F454407005E854782133C9
:10113000E8541875A07F4CF53275A07F22756300C6
:1011400075A0707D02120E6AE580F4547FF5645438
:101150003FF555E5645440700775A07F75636222C2
:1011600075A07FE5645430B400057563E22185B451
:1011700010057563EA2185B420057563F22185B4F5
:1011800030037563FAE564540FB4000475553022DA
:10119000B4010475553122B4020475553222B403EA
:1011A0000475553322B4040475553422B40504750E
:1011B000553522B4060475553622B40704755537E3
:1011C00022B4080475553822B4090475553922B47F
:1011D0000A0475553A227555C0221D0C1D141D1C9C
:1011E0001D241D2C1D341D3C1D441D4C1D541D5C17
:1011F0001D641D6C1D741D7C1D841D8C1D941D9C07
:101200001DA41DAC1DB41DBC1DC41DCC1DD41DDCF6
:101210001DE41DEC1DF41DFC1E041E0C1E141E1CE2
:101220001E241E2C1E341E3C1E441E4C1E541E5CCE
:101230001E641E6C1E741E7C1E841E8C1E941E9CBE
:101240001EA41EAC1EB41EBC1EC41ECC1ED41EDCAE
