:06000000020024020321AE
:01000B0032C2
:0100130032BA
:01001B0032B2
:0D00230032C297758160D293D294D290D2F0
:1000300091D29275D00075A800C2B4C201C202C2AA
:10004000057400F534F546F549F547F548F53EF5F4
:100050003FF54FF54FF54FD297E5A000F4547FF5EB
:100060004C543FF530E54C5440B400022117D20403
:10007000E54C5430B40005754BE20192B41005759F
:100080004BEA0192B42005754BF20192B43003752E
:100090004BFAE530540FB4000875303085304D21EF
:1000A0001CB4010875303185304D211CB40208752F
:1000B000303285304D211CB4030875303385304D06
:1000C000211CB4040875303485304D211CB405085A
:1000D00075303585304D211CB406087530368530B5
:1000E0004D211CB4070875303785304D211CB408EC
:1000F0000875303885304D211CB4090875303985B4
:10010000304D211CB40A0875303A85304D211C75DC
:1001100030C085304D211CC204754B62D293D294FD
:10012000D290D291D292E53023F5319006C293F568
:1001300032E5310493F533C297D291C2907D02D15A
:10014000BF74307808D19374037808D193745478CD
:1001500006D1937D02D1BFD2907D02D1BFC2907DE6
:1001600002D1BF74A47808D193E5327808D193E521
:10017000337806D19374807801D193D2907D02D1E7
:10018000BFD2967D20D2977EFFDEFEC297DDF67D40
:1001900040D2977EFFDEFEC297209608DDF3200452
:1001A00003020024C203C206754A00752200754985
:1001B00000754100753900753A00753C00753D00C9
:1001C000754000754E00D2A7D288D2A8D2AFD29780
:1001D00030032520B522054AE54AB4FA1B754A00CA
:1001E000300410C2977D021206B4D2977D02120627
:1001F000B441D3C2B40201A4200624E54EB41404D1
:10020000D206411FE53DB41004C202419BE541B452
:100210000204C202419BE540B4021FC202419BE5B9
:100220003DB40204C202419BE541B40404C2024150
:100230009BE540B40804C202419B20960E20030BAC
:10024000E53AB41006C2AFC202419B20020221CEA1
:10025000E522B40F2B754000753E00753F007541D7
:1002600000753900753A00753C00753D00754E000B
:10027000754F00755000755100D20300D2B421CEE5
:10028000053EE53EB4FF12753E00053FE53FB45F15
:1002900008753F00752200C20221CE200405C2B4B9
:1002A0000201A430032DC2977D021206B4D2977DBD
:1002B000021206B4C2977D021206B4D2977D0212D2
:1002C00006B4C2977D021206B4D2977D021206B41C
:1002D0000201A4C2B4C2AF300508854D30C2050288
:1002E000011CE54C5430B4000BE530940CF530D2D1
:1002F0000502011CB4100BE5309418F530D205024C
:10030000011CB4200BE5309424F530D20502011C09
:10031000B4300BE5309430F530D20502011C0200F8
:1003200024C0E020960E0539E539B48007C2027575
:100330003900053A20032A054FE54FB49023754F45
:10034000000550E550B42C197550000551E551B425
:10035000680F7551007DF47E287FF9DFFEDEFADD3F
:10036000F6A2B09200E522B400047194618DB4014C
:100370000471E8618DB40304913A618DB40704916E
:1003800090618DB40F049190618D752200C297D257
:10039000AFD0E032A200E53813F538E53713F53772
:1003A000E53613F536E53513F535E535B40123E5C6
:1003B00036B4001EE537B40019E538B4C014D210C5
:1003C000D202054E753C00753D00753900753A0046
:1003D00061E4752200053CE53CB48008753C00757D
:1003E0003A00053D753400220534A200E53813F5C6
:1003F00038E53713F537E53613F536E53513F535BA
:10040000E534B4203412064F200124E5355407B4F6
:10041000051DAF35E537F4B50715E536547FFFE523
:1004200038F4547FB507088535478536488133054C
:1004300040C202D21175340022220534A200E538F0
:1004400013F538E53713F537E53613F536E535138B
:10045000F535E534B4203812064F200126AF35E5D6
:1004600037F4B5071EE536547FFFE538F4547FB501
:100470000711E535B54B0CE536543FB530057541F0
:10048000008189C20205410540D212753400222242
:100490000534A200E53813F538E53713F537E536AE
:1004A00013F536E53513F535E534B4206812064FFB
:1004B00020012DAF35E537F4B50725E536547FFF2C
:1004C000E538F4547FB50718E5355407B40602A1A2
:1004D0000FB40302A10FB40402A10FB40102A10FD3
:1004E000E535B40126E536B40021E537B4001CE556
:1004F00038B4C017D202054E752201753C00753D17
:1005000000753900753A00753400220540C202D2E8
:10051000137534002222C2B4E549B41409D2B4D20E
:10052000A7D2AF0201CE40030201A4D297054974BD
:10053000017808120620C29774007808120620D2AB
:100540009774007808120620C29774C078081206C3
:1005500020D297754600E547F5427808120620C27A
:1005600097E548F5437807120620120638D29775AA
:100570004601E542F47808120620C297E543F47874
:1005800007120620120638D2977546007406F54207
:100590007803120620C2977400F5437808120620EB
:1005A000D2977404F5447804120620120638C297D4
:1005B000754601E542F47803120620D297E543F42C
:1005C0007808120620C297E544F478041206201237
:1005D0000638D2977546007403F542780312062058
:1005E000C2977400F5437808120620D2977400F57C
:1005F000447804120620120638C297754601E54277
:10060000F47803120620D297E543F4780812062006
:10061000C297E544F4780412062012063802051643
:1006200030B3FD20B3FD7D10D1BF135006C2A70526
:1006300046C135D2A7D8E92230B3FD20B3FD7D10E5
:10064000D1BFE54654016004C2A7C14ED2A72275AE
:100650003B00E535120688E53612068875F002E59E
:100660003B84E5F06002801D753B01E5371206888A
:10067000E53812068875F002E53B84E5F0600280FB
:1006800004C2018002D20122C37F08135002053B3D
:10069000DFF922C2977D02D1BF335005D292020604
:1006A000A3C2927D02D1BFC2917D01D1BFD291D8A8
:1006B000E2D297227E287FF9DFFEDEFADDF622DD28
:1006C000FE22280C2814281C2824282C2834283CF6
:1006D0002844284C2854285C2864286C2874287CDA
:1006E0002884288C2894289C28A428AC28B428BCCA
:1006F00028C428CC28D428DC28E428EC28F428FCBA
:100700002904290C2914291C2924292C2934293CA1
:100710002944294C2954295C2964296C2974297C91
:100720002984298C2994299C29A429AC29B429BC81
:0807300029C429CC29D429DCDD
