:06000000020024020325AA
:01000B0032C2
:0100130032BA
:01001B0032B2
:0D00230032C297758160D290D291D2927551
:10003000D00075A800C2B4C201C202C2057400F5A6
:1000400034F546F549F547F548F53EF53FF54FF5EA
:1000500050F551D297E5A000F4547FF54C543FF58C
:1000600030E54C5440B400022119D290D291D29282
:10007000D204E54C5430B40005754BE20194B41041
:1000800005754BEA0194B42005754BF20194B43028
:1000900003754BFAE530540FB400087530308530E5
:1000A0004D211EB4010875303185304D211EB4023A
:1000B0000875303285304D211EB403087530338504
:1000C000304D211EB4040875303485304D211EB4E6
:1000D000050875303585304D211EB406087530365B
:1000E00085304D211EB4070875303785304D211EEF
:1000F000B4080875303885304D211EB409087530B4
:100100003985304D211EB40A0875303A85304D21AD
:100110001E7530C085304D211EC204754B62E5301E
:1001200023F5319006CC93F532E5310493F533C2D3
:1001300097C294D296D291C2907D02D1C974FF78B1
:1001400008D19D74107808D19D74047806D19D7DE6
:1001500002D1C9D2907D02D1C9C2907D02D1C974A9
:10016000A47808D19DE5327808D19DE5337806D191
:100170009D7D021206C9D2907D02D1BED2967D200D
:10018000D2977EFFDEFEC297DDF67D40D2977EFFDE
:10019000DEFEC297209608DDF3200403020024D27D
:1001A00094C2937D011206BEC203C206754A007551
:1001B0002200754900754100753900753A00753C9B
:1001C00000753D00754000754E00D2A7D288D2A8B8
:1001D000D2AFD29730032520B522054AE54AB4FABA
:1001E0001B754A00300410C2977D021206BED297DA
:1001F0007D021206BE41D7C2B402019F200624E54B
:100200004EB41404D2064123E53DB41004C20241A9
:100210009FE541B40204C202419FE540B4021FC2FF
:1002200002419FE53DB40204C202419FE541B4048E
:1002300004C202419FE540B40804C202419F2096D7
:100240000E20030BE53AB41006C2AFC202419F2054
:10025000020221D2E522B40F2B754000753E0075D5
:100260003F00754100753900753A00753C00753DD9
:1002700000754E00754F00755000755100D2030097
:10028000D2B421D2053EE53EB4FF12753E00053FD3
:10029000E53FB45F08753F00752200C20221D220FD
:1002A0000405C2B402019F30032DC2977D021206DD
:1002B000BED2977D021206BEC2977D021206BED242
:1002C000977D021206BEC2977D021206BED2977DAE
:1002D000021206BE02019FC2B4C2AF300508854DAE
:1002E00030C20502011EE54C5430B4000BE53094D9
:1002F0000CF530D20502011EB4100BE5309418F550
:1003000030D20502011EB4200BE5309424F530D222
:100310000502011EB4300BE5309430F530D20502F1
:10032000011E020024C0E0209612C2B70539E5394B
:10033000B48007C202753900053A613ED2B7200386
:100340002A054FE54FB49023754F000550E550B492
:100350002C197550000551E551B4680F7551007D99
:10036000F47E287FF9DFFEDEFADDF6A2B09200E52A
:1003700022B40004719E6197B4010471F26197B4D4
:10038000030491446197B40704919A6197B40F04F0
:10039000919A6197752200C297D2AFD0E032A20045
:1003A000E53813F538E53713F537E53613F536E557
:1003B0003513F535E535B40123E536B4001EE537D0
:1003C000B40019E538B4C014D210D202054E753C01
:1003D00000753D00753900753A0061EE7522000523
:1003E0003CE53CB48008753C00753A00053D753429
:1003F00000220534A200E53813F538E53713F53748
:10040000E53613F536E53513F535E534B420341209
:100410000659200124E5355407B4051DAF35E537ED
:10042000F4B50715E536547FFFE538F4547FB5077A
:1004300008853547853648813D0540C202D2117591
:10044000340022220534A200E53813F538E53713CD
:10045000F537E53613F536E53513F535E534B420D3
:1004600038120659200126AF35E537F4B5071EE5E9
:1004700036547FFFE538F4547FB50711E535B54BA9
:100480000CE536543FB530057541008193C2020535
:10049000410540D21275340022220534A200E5380D
:1004A00013F538E53713F537E53613F536E535132B
:1004B000F535E534B4206812065920012DAF35E535
:1004C00037F4B50725E536547FFFE538F4547FB59A
:1004D0000718E5355407B40602A119B40302A1199F
:1004E000B40402A119B40102A119E535B40126E54D
:1004F00036B40021E537B4001CE538B4C017D20289
:10050000054E752201753C00753D00753900753A40
:1005100000753400220540C202D213753400222235
:10052000C2B4E549B41409D2B4D2A7D2AF0201D201
:10053000400302019FD29705497401780812062AE8
:10054000C2977400780812062AD2977400780812AD
:10055000062AC29774C0780812062AD297754600F8
:10056000E547F542780812062AC297E548F5437830
:100570000712062A120642D297754601E542F47820
:100580000812062AC297E543F4780712062A1206D3
:1005900042D2977546007406F542780312062AC2C5
:1005A000977400F543780812062AD2977404F5442C
:1005B000780412062A120642C297754601E542F4F3
:1005C000780312062AD297E543F4780812062AC265
:1005D00097E544F4780412062A120642D29775462B
:1005E000007403F542780312062AC2977400F5439B
:1005F000780812062AD2977400F544780412062A65
:10060000120642C297754601E542F4780312062AA3
:10061000D297E543F4780812062AC297E544F478A5
:100620000412062A12064202052030B3FD20B3FD53
:100630007D10D1C9135006C2A70546C13FD2A7D825
:10064000E92230B3FD20B3FD7D10D1C9E546540148
:100650006004C2A7C158D2A722753B00E535120637
:1006600092E53612069275F002E53B84E5F06002F1
:10067000801D753B01E537120692E538120692752A
:10068000F002E53B84E5F060028004C2018002D202
:100690000122C37F08135002053BDFF922C2977D78
:1006A00002D1C9335005D2920206ADC2927D02D169
:1006B000C9C2917D01D1C9D291D8E2D297227E28B8
:1006C0007FF9DFFEDEFADDF622DDFE221D0C1D14B1
:1006D0001D1C1D241D2C1D341D3C1D441D4C1D5472
:1006E0001D5C1D641D6C1D741D7C1D841D8C1D9462
:1006F0001D9C1DA41DAC1DB41DBC1DC41DCC1DD452
:100700001DDC1DE41DEC1DF41DFC1E041E0C1E143E
:100710001E1C1E241E2C1E341E3C1E441E4C1E5429
:100720001E5C1E641E6C1E741E7C1E841E8C1E9419
:100730001E9C1EA41EAC1EB41EBC1EC41ECC1ED409
:020740001EDCBD
